:020000040000FA
:0400000080312828FB
:100008007E1480312100101E0A280B281428200095
:10001800101E0F28102814288431AA24803126287D
:100028000B1F1728182826282100111C1C281D28FA
:1000380026282000111C21282228262884313B2428
:10004800803126287E10090080312A28B3308400A8
:100058008430850021001200C4001200C50012007F
:10006800C6001200C7001200C8001200C900120022
:10007800CA001200CB00F030840020308500003028
:10008800FE000330FF00843195248031FA01FB0122
:1000980055308400003085001530FE000030FF0028
:1000A800843195248031A0308400003085002430CC
:1000B800FE000030FF008431952480317E1020003E
:1000C8008431212C20003D0886003E0887008101EC
:1000D80021004B082000C30021004A082000C2006C
:1000E800210049082000C100210048082000C00064
:1000F8005030AC000030AD00AE01403083313823C1
:10010800803120002D08C9002C08C80021004708AC
:100118002000C700210046082000C600210045082D
:100128002000C500210044082000C4005030AC0065
:100138000030AD00AE0144308331382380312000D7
:100148002D08CB002C08CA008231B02280317808F3
:100158002000D1007708D0008231B0228031200001
:100168003D0886003E08870041317708C03F78087F
:10017800C13F3D0886003E0887004131403FD2001C
:10018800413FD300CC01CD0120005308B6005208EE
:10019800B5008231B022803178082000AD007708A0
:1001A800AC004908AF004808AE008231FF22803118
:1001B80020002D08B8002C08B70082315822803161
:1001C80020005308B6005208B5008231B0228031B1
:1001D80078082000AD007708AC005108AF0050083F
:1001E800AE008231FF22803120002D08B8002C0893
:1001F800B70082315822803101302000CC0700300E
:10020800CD3D4D08803ABF0080303F02031D0E29C6
:1002180003304C02031C11291229C8282000530856
:10022800B6005208B5008231B0228031780820002B
:10023800AD007708AC005108AF005008AE0082311D
:10024800FF22803120002D08B8002C08B700823129
:10025800582280312000CE01CF0120005308B6007B
:100268005208B5008231B022803178082000AD00F4
:100278007708AC004B08AF004A08AE008231FF2275
:10028800803120002D08B8002C08B7008231582290
:10029800803120005308B6005208B5008231B022E0
:1002A800803178082000AD007708AC005108AF0015
:1002B8005008AE008231FF22803120002D08B8009E
:1002C8002C08B70082315822803101302000CE0737
:1002D8000030CF3D4F08803ABF0080303F02031DF9
:1002E800772903304E02031C7A297B29312908001B
:1002F800F500D62920000E0C01397206031985294C
:100308008629EC29031022008E1C031403188D295A
:10031800902922008E14922922008E10EC292000A8
:100328000E0C890C0139720603199B299C29EC29AA
:10033800031022000E1D03140318A329A629220066
:100348000E15A82922000E11EC2920000E0CF3002E
:10035800F30C730C013972060319B329B429EC297B
:10036800031022008E1D03140318BB29BE29220086
:100378008E15C02922008E11EC2920000E0E01399D
:1003880072060319C829C929EC29031022000E1E78
:1003980003140318D029D32922000E16D5292200C8
:1003A8000E12EC297508F300F4017408003A0319D9
:1003B800DE29C1297308003A03197E29013A031975
:1003C8009329033A0319A929013A0319C129C12913
:1003D800080020006208F9006108F8005508780252
:1003E800A0005608793BA1005708860058088700E6
:1003F8004431403FA200413FA30021082302031DCE
:10040800072A2008220203180A2A0B2A1A2A570840
:100418008600580887004631403FD700413FD80042
:100428007908D6007808D500E501E50A6503031DBB
:100438001E2A1F2A572A57088600580887000108CD
:10044800A0002008F200003081317C218131200099
:10045800570886005808870041310108A000200885
:10046800F200013081317C2181312000570886005B
:100478005808870042310108A0002008F200023025
:1004880081317C2181312000570886005808870077
:1004980043310108A0002008F200033081317C219B
:1004A80081312000E5010800200035088600360863
:1004B8008700463116000104031D632A642A772A3F
:1004C800350886003608870046313708C03F3808A7
:1004D800C13F370886003808870046313508C03FD5
:1004E8003608C13FAF2A35088600360887004631EE
:1004F800403FBB00413FBC008A2A3B0886003C08BD
:1005080087004631403FBB00413FBC003B088600A6
:100518003C0887004631403FB900413FBA003608E1
:100528003A06031D992A35083906031D9C2A9D2A77
:10053800812A3B0886003C08870046313708C03FBF
:100548003808C13F37088600380887004631350823
:10055800C03F3608C13F0800003020005C02603010
:1005680003195B02031CB92ABA2ABD2AF701F8014C
:10057800FE2A5C08A3005B08A200A235A30DA235E1
:10058800A30DA235A30DF030A4002030A500220849
:100598002407AA002308253DAB000130DB07003003
:1005A800DC3D0030A9000030A8000030A700003072
:1005B800A6002B08F3002A08F2002630A200220821
:1005C800F4008331BD23823120002A0886002B08DD
:1005D800870044315030C03F0030C13F2A088600B0
:1005E8002B08870046310030C03FC13F2B08F80078
:1005F8002A08F70008002000B301B40120003308DE
:100608002E07860034082F3D87000108B000330804
:100618002C07B10034082D3DB2003108860032089D
:100628008700300881000130B3070030B43D34083A
:10063800803AB00080303002031D242B043033028E
:10064800031C272B282B022B20002E0886002F089E
:10065800870044312C0884002D0885000431403F70
:10066800803F413F813F08002000AF008231B02227
:10067800833178082000B1007708B0003108F30012
:100688003008F2002F08F9007908F4008331BD23FF
:1006980083312000300886003108870044312C0857
:1006A800C03F2D08C13F3008860031088700463119
:1006B8002E08C03F0030C13F3108AD003008AC0003
:1006C80008007B087A0603196A2B6B2B7E2BF40132
:1006D800F501802B0430F2003E30890B712BF20BB0
:1006E800712B20000E0E890C01397B0603197D2B16
:1006F8007E2B802B0030912B7508F3007408F200D4
:10070800F40A0319F50A0030730203300319720260
:10071800031C8F2B902B6E2B0130080022008C01BC
:1007280020308E00373021008C0021308E002300CD
:100738008E0133308C0024008C011E308E00250081
:100748008C018E01373026008C003F308E003F3000
:1007580027008C003F308E00191018101714DC3059
:10076800F2000430F3008431C924833121001016CB
:1007780008002000A001A10120087407F5007508F1
:10078800860087010108F60020087207F700210893
:10079800733DF8007708860078088700760881009E
:1007A8000130A0070030A13D0030210204300319B8
:1007B8002002031CE02BE12BC02B0800F700770870
:1007C800F6007608F200003081317C218331770809
:1007D800F6007608F200013081317C2183317708F8
:1007E800F6007608F200023081317C2183317708E7
:1007F800F6007608F200033081317C21833108004D
:100808008431762484318B170B1784315124843139
:100818008431D924843100308331E2238431673034
:100828002000BD000030BE008031662084312000E9
:100838006908D8006808D700080084310424843186
:10084800003020008E1A0130FB008331652384318B
:100858007B082000D4005408FA006730F600003006
:10086800F7008131ED218431242C803128282000A3
:1008780011106D08F1006C08F00084316524843192
:1008880020006A086B0403194A2C4B2C502C6B0867
:100898008A006A080A008431080020009C01FF30A1
:1008A8009A00990111101A08ED001908EC002100AE
:1008B8001114CF30F2000430F3008431C3248431A2
:1008C800080020001B1D692C6A2C712C1B10710854
:1008D8009A00700899001B14752C71089A0070080A
:1008E800990008008431BB248431833192238431F8
:1008F8008431A12484318431D52484318431512434
:100908008431080020006E086F0403198C2C8D2C8C
:10091800922C6F088A006E080A008431270019108B
:1009280008006400800101310130FE020030FF3B05
:100938007F087E04031D962C003462303200990033
:100948009B019D0103309F009E0108002700191C90
:10095800AE2CAF2CB22C84318624843108000034AC
:1009680001340034013401340034013400343200DD
:100978009101920193019401950196010800730871
:100988002000EB007208EA00080073082000EF005E
:100998007208EE00080001302000E1070030E23D57
:1009A8000800163021009700080020001B140800DA
:0209B800080035
:020000040001F9
:08000E00ECFFF3FFFFFFFFFF11
:00000001FF
