:020000040000FA
:0400000080312828FB
:100008007E1480312100101E0A280B281428200095
:10001800101E0F28102814288131A9218031262884
:100028000B1F1728182826282100111C1C281D28FA
:1000380026282000111C21282228262881317621F3
:10004800803126287E10090080312A288131C62176
:100058008031B4008131C7218031B5008131C82198
:100068008031B6008131C9218031B700B0308400B9
:10007800223085004030FE000130FF00813194219C
:100088008031F701F801F901FA01FB012030840001
:10009800003085000E30FE000030FF0081319421D1
:1000A80080317E1020008031E228F5007428720C1F
:1000B8002200031C8E1003188E14720C2200031CDD
:1000C8000E1103180E15720C2200031C8E11031852
:1000D8008E15720C2200031C0E1203180E168A28A5
:1000E8007508F300F4017408003A03197C286D2898
:1000F8007308003A03195B28013A03196128033A87
:1001080003196728013A03196D286D2808007A0831
:100118007906031990289128A428F401F501A62846
:100128000430F2003E30890B9728F20B9728200004
:100138000E0E890C01397A060319A328A428A628CB
:100148000030B7287508F3007408F200F40A0319A0
:10015800F50A00307302033003197202031CB52834
:10016800B62894280130080022008C0120308E0027
:10017800373021008C0021308E0023008E0133306F
:100188008C0024008C018E0125008C018E013730F3
:1001980026008C003F308E003F3027008C003F3017
:1001A8008E00191018101714D130F2000130F30026
:1001B8008131C0218031210010160800813156217B
:1001C8008031003020008E1A0130FA0080318B20F7
:1001D8008031003A0319F128F22800297A08031D12
:1001E800F628F728FC2801308131082180310029C0
:1001F80000308131082180317A082000B90039089F
:10020800F900E528803128282000B8003808F600D1
:100218007608F200003080315920813120003808FA
:10022800F6007608F2000130803159208131200033
:100238003808F6007608F200023080315920813102
:1002480020003808F6007608F20003308031592083
:100258008131080020009C01FF309A00990111109B
:100268001A08B1001908B000210011140030F2007A
:100278000030F3008131BA218131013020009B0028
:10028800080020001B1D49294A2951291B10710803
:100298009A00700899001B14552971089A00700873
:1002A800990008008131662181318B170B17813144
:1002B8002E2181318131CE218131003081310821D7
:1002C800813108008131B22181318031B8208131FA
:1002D8008131A02181318131CA21813181312E21A1
:1002E80081310800200011103108F1003008F000B9
:1002F80081314521813101302000AA070030AB3D12
:10030800080020003208330403198B298C2991290D
:1003180033088A0032080A008131270019100800C2
:100328006400800101310130FE020030FF3B7F088C
:100338007E04031D952900346230320099009B0128
:100348009D0103309F009E0108002700191CAD295C
:10035800AE29B1298131852181310800320091010E
:1003680092019301940195019601080073082000F9
:10037800AF007208AE00080073082000B3007208CE
:10038800B200080001340034013400341630210072
:0C0398009700080020001B14080008005B
:020000040001F9
:08000E00ECFFF3FFFFFFFFFF11
:00000001FF
