:020000040000FA
:0400000080312828FB
:100008007E1480312100101E0A280B281428200095
:10001800101E0F28102814288C319324803126288C
:100028000B1F1728182826282100111C1C281D28FA
:1000380026282000111C2128222826288731EA2773
:10004800803126287E10090080312A28B5308400A6
:100058008D308500A0308600003087000030FF001A
:1000680020308C31EC248031F03084002030850041
:100078000030FE000330FF008C31E0248031F701AE
:10008800F801F901FA01FB016430840000308500B1
:100098000B30FE000030FF008C31E0248031C0308E
:1000A8008400003085001B30FE000030FF008C31DA
:1000B800E024803120308400013085001230FE00B9
:1000C8000030FF008C31E02480317E1020008E311A
:1000D8008F2E2000440886004508870001308100E3
:1000E800210037082000CA00210036082000C90076
:1000F800210035082000C800210034082000C7006E
:100108003C30B3000030B400B50147308E31BB2617
:10011800803120003408D0003308CF002100330894
:100128002000CE00210032082000CD002100310837
:100138002000CC00210030082000CB003C30B30068
:100148000030B400B5014B308E31BB268031200021
:100158003408D2003308D10087319B278031200032
:100168002108D8002008D7004408860045088700E1
:100178004131403FD900413FDA00D301D40120008A
:100188005A08BD005908BC0087319B2780312000E0
:100198002108B4002008B3005008B6004F08B50085
:1001A8008F314A27803120003408BF003308BE0051
:1001B80087314327803120005A08BD005908BC0008
:1001C80087319B27803120002108B4002008B30024
:1001D8005808B6005708B5008F314A2780312000EB
:1001E8003408BF003308BE0087314327803101300F
:1001F8002000D3070030D43D5408803AC600803030
:100208004602031D092903305302031C0C290D293A
:10021800C32820005A08BD005908BC0087319B2715
:10022800803120002108B4002008B3005808B60027
:100238005708B5008F314A27803120003408BF00A5
:100248003308BE008731432780312000D501D6010D
:1002580020005A08BD005908BC0087319B2780310F
:1002680020002108B4002008B3005208B600510845
:10027800B5008F314A27803120003408BF00330889
:10028800BE0087314327803120005A08BD00590835
:10029800BC0087319B27803120002108B40020084A
:1002A800B3005808B6005708B5008F314A27803187
:1002B80020003408BF003308BE008731432780314F
:1002C80001302000D5070030D63D5608803AC600D8
:1002D80080304602031D722903305502031C75291C
:1002E80076292C2908002000440886004508870044
:1002F8000230810021002F082000CA0021002E08AA
:100308002000C90021002D082000C80021002C0869
:100318002000C7003C30B3000030B400B5014730BE
:100328008E31BB26813120003408D0003308CF003D
:1003380021002B082000CE0021002A082000CD0033
:10034800210029082000CC00210028082000CB002B
:100358003C30B3000030B400B5014B308E31BB26C1
:10036800813120003408D2003308D10087319B271F
:10037800813120002108D8002008D70044088600D1
:10038800450887004131403FD900413FDA00D30199
:10039800D40120005A08BD005908BC0087319B27AA
:1003A800813120002108B4002008B3005008B600AD
:1003B8004F08B5008F314A27813120003408BF002B
:1003C8003308BE0087314327813120005A08BD0019
:1003D8005908BC0087319B27813120002108B400CF
:1003E8002008B3005808B6005708B5008F314A27CF
:1003F800813120003408BF003308BE00873143270D
:10040800813101302000D3070030D43D5408803AB0
:10041800C60080304602031D132A03305302031C12
:10042800162A172ACD2920005A08BD005908BC00F1
:1004380087319B27813120002108B4002008B300B0
:100448005808B6005708B5008F314A278131200077
:100458003408BF003308BE008731432781312000AC
:10046800D501D60120005A08BD005908BC008731C3
:100478009B27813120002108B4002008B3005208CE
:10048800B6005108B5008F314A2781312000340861
:10049800BF003308BE0087314327813120005A0846
:1004A800BD005908BC0087319B27813120002108F5
:1004B800B4002008B3005808B6005708B5008F31BB
:1004C8004A27813120003408BF003308BE00873135
:1004D8004327813101302000D5070030D63D56082A
:1004E800803AC60080304602031D7C2A033055023C
:1004F800031C7F2A802A362A080020004408860028
:100508004508870003308100210027082000CA0021
:10051800210026082000C900210025082000C80065
:10052800210024082000C7003C30B3000030B4008C
:10053800B50147308E31BB26823120003408D00007
:100548003308CF00210023082000CE002100220814
:100558002000CD00210021082000CC002100200827
:100568002000CB003C30B3000030B400B5014B3064
:100578008E31BB26823120003408D2003308D100E6
:1005880087319B27823120002108D8002008D70016
:1005980044088600450887004131403FD900413F63
:1005A800DA00D301D40120005A08BD005908BC0064
:1005B80087319B27823120002108B4002008B3002E
:1005C8005008B6004F08B5008F314A278231200005
:1005D8003408BF003308BE0087314327823120002A
:1005E8005A08BD005908BC0087319B27823120007A
:1005F8002108B4002008B3005808B6005708B50011
:100608008F314A27823120003408BF003308BE00EA
:1006180087314327823101302000D3070030D43D91
:100628005408803AC60080304602031D1D2B033053
:100638005302031C202B212BD72A20005A08BD0067
:100648005908BC0087319B27823120002108B4005B
:100658002008B3005808B6005708B5008F314A275C
:10066800823120003408BF003308BE008731432799
:1006780082312000D501D60120005A08BD00590852
:10068800BC0087319B27823120002108B400200854
:10069800B3005208B6005108B5008F314A2782319D
:1006A80020003408BF003308BE0087314327823159
:1006B80020005A08BD005908BC0087319B278231A9
:1006C80020002108B4002008B3005808B6005708D5
:1006D800B5008F314A27823120003408BF00330823
:1006E800BE0087314327823101302000D507003012
:1006F800D63D5608803AC60080304602031D862B38
:1007080003305502031C892B8A2B402B080020003C
:100718004408860045088700810121003F08200021
:10072800CA0021003E082000C90021003D08200021
:10073800C80021003C082000C7003C30B30000304E
:10074800B400B50147308E31BB2683312000340810
:10075800D0003308CF0021003B082000CE00210044
:100768003A082000CD00210039082000CC002100E3
:1007780038082000CB003C30B3000030B400B5018D
:100788004B308E31BB26833120003408D200330829
:10079800D10087319B27833120002108D800200809
:1007A800D70044088600450887004131403FD900FA
:1007B800413FDA00D301D40120005A08BD0059088E
:1007C800BC0087319B27833120002108B400200812
:1007D800B3005008B6004F08B5008F314A2783315F
:1007E80020003408BF003308BE0087314327833117
:1007F80020005A08BD005908BC0087319B27833167
:1008080020002108B4002008B3005808B600570893
:10081800B5008F314A27833120003408BF003308E0
:10082800BE0087314327833101302000D3070030D1
:10083800D43D5408803AC60080304602031D262C59
:1008480003305302031C292C2A2CE02B20005A08C1
:10085800BD005908BC0087319B278331200021083F
:10086800B4002008B3005808B6005708B5008F3107
:100878004A27833120003408BF003308BE0087317F
:10088800432783312000D501D60120005A08BD0036
:100898005908BC0087319B27833120002108B40008
:1008A8002008B3005208B6005108B5008F314A2716
:1008B800833120003408BF003308BE008731432746
:1008C800833120005A08BD005908BC0087319B2796
:1008D800833120002108B4002008B3005808B6006E
:1008E8005708B5008F314A27833120003408BF00EC
:1008F8003308BE0087314327833101302000D507F4
:100908000030D63D5608803AC60080304602031DA6
:100918008F2C03305502031C922C932C492C080071
:100928002000E101E2018F31832784312000620831
:10093800DE006108DD00DD35DE0D5D085B07860041
:100948005E085C3D87002808C03F2908C13F013088
:10095800E1070030E23D6208803ADD0080305D0248
:10096800031DB82C06306102031CBB2CBC2C972C31
:100978008D31D52584312000DD005B080C3EDE007A
:1009880000305C3DDF005E0886005F0887005D0878
:1009980081005B0886005C088700403FC400413F37
:1009A800C50083318B23843120005B0886005C08F6
:1009B80087004231403FC400413FC50080316D206F
:1009C800843120005B0886005C0887004431403F82
:1009D800C400413FC50081317721843120005B0884
:1009E80086005C0887004631403FC400413FC5008F
:1009F80082318122843120005B0886005C088700F0
:100A08004C310108DD00DE01DD35DE0D5D085B07D8
:100A180086005E085C3D8700403FDF00413FE00004
:100A28005F0886006008870041315B0884005C0825
:100A380085000D31403F803F413F813F5B080F3EBD
:100A4800DD0000305C3DDE005D0886005E08870042
:100A58000030C03FC13FC23FC33F08008C31CB24A8
:100A6800853120002108B0002008AF002F08A5001C
:100A78003008A600A701A801210057082000A502F8
:100A8800210058082000A63B210059082000A73B58
:100A980021005A082000A83B210055088600560866
:100AA80087004431403F2000A900413FAA0029089F
:100AB800AB002A08AC00AD01AE0128082E02031DC8
:100AC8006F2D27082D02031D6F2D26082C02031DEC
:100AD8006F2D25082B020318722D732D8A2D2100E6
:100AE80055088600560887004631403FD500413FEB
:100AF800D60020002F082100D70020003008210050
:100B0800D800D901DA012000EC01EC0A6C03031DBE
:100B18008E2D8F2DCC2D2100550886005608870074
:100B280001082000A5002508A00000308631D12644
:100B38008531210055088600560887004131010893
:100B48002000A5002508A00001308631D126853176
:100B58002100550886005608870042310108200008
:100B6800A5002508A00002308631D1268531210054
:100B78005508860056088700433101082000A50063
:100B88002508A00003308631D12685312000EC01EC
:100B98000800032E24080C3EA6000030253DA700BF
:100BA8002608860027088700013081001F2E2408A8
:100BB8000C3EA6000030253DA70026088600270821
:100BC8008700023081001F2E24080C3EA60000304A
:100BD800253DA700260886002708870003308100E6
:100BE8001F2E24088600250887004C3181011F2EFE
:100BF80024088600250887004C3181011F2E20001B
:100C080024088600250887004C310108A600A701A2
:100C18002708003A0319112EFC2D2608003A03195B
:100C2800CE2D013A0319DB2D033A0319E82D013AB9
:100C38000319F52DFC2D24088600250887004C3162
:100C48000108A600A701A635A70D260824078600D7
:100C58002708253D8700403FA800413FA9002808F4
:100C6800860029088700413124088400250885006A
:100C78000D31403F803F413F813F240886002508D1
:100C880087004C3101088C31D52485312000240897
:100C98008600250887004C310108A600A701A63563
:100CA800A70D2608240786002708253D8700080089
:100CB800F3007008F1007108F400BA2E20000E0E3F
:100CC800013974060319692E6A2ED02E03102200EA
:100CD8000E1E03140318712E742E22000E16762E83
:100CE80022000E12D02E20000E0CF100F10C710C17
:100CF800013974060319812E822ED02E031022008A
:100D08008E1D03140318892E8C2E22008E158E2E0C
:100D180022008E11D02E20000E0C890C0139740689
:100D28000319972E982ED02E031022000E1D03149F
:100D380003189F2EA22E22000E15A42E22000E119B
:100D4800D02E20000E0C013974060319AC2EAD2EDE
:100D5800D02E031022008E1C03140318B42EB72EB5
:100D680022008E14B92E22008E10D02E7308F100A6
:100D7800F2017208003A0319C22EA52E7108003A32
:100D88000319622E013A0319772E033A03198F2E9D
:100D9800013A0319A52EA52E08002000A30020085B
:100DA800A1002108A4002C2F0E0E013924060319D6
:100DB800DE2EDF2E422F031022000E1E031403180E
:100DC800E62EE92E22000E16EB2E22000E12422FDE
:100DD8000E0CA100A10C210C013924060319F52ED3
:100DE800F62E422F031022008E1D03140318FD2E29
:100DF800002F22008E15022F22008E11422F0E0C7A
:100E0800890C0139240603190A2F0B2F422F0310CE
:100E180022000E1D03140318122F152F22000E1581
:100E2800172F22000E11422F0E0C01392406031928
:100E38001E2F1F2F422F031022008E1C031403188D
:100E4800262F292F22008E142B2F22008E10422F9E
:100E58002308A100A2012208003A0319342F182FF1
:100E68002108003A0319D82E013A0319EC2E033A47
:100E78000319032F013A0319182F182F080020000F
:100E88003C0886003D088700463116000104031D12
:100E98004E2F4F2F622F3C0886003D0887004631B1
:100EA8003E08C03F3F08C13F3E0886003F08870014
:100EB80046313C08C03F3D08C13F9A2F3C08860098
:100EC8003D0887004631403FC200413FC300752FAF
:100ED80042088600430887004631403FC200413F30
:100EE800C30042088600430887004631403FC000DF
:100EF800413FC1003D084106031D842F3C084006C0
:100F0800031D872F882F6C2F42088600430887000F
:100F180046313E08C03F3F08C13F3E0886003F08B3
:100F2800870046313C08C03F3D08C13F08000030FB
:100F380020006B02603003196A02031CA42FA52F3E
:100F4800A82FA001A101E92F6B08AA006A08A9002F
:100F5800A935AA0DA935AA0DA935AA0DF030AB00FF
:100F68002030AC0029082B07B1002A082C3DB2001C
:100F78000130EA070030EB3D0030B0000030AF0030
:100F88000030AE000030AD003208A1003108A000EA
:100F98002D30A9002908A2008E311826873120009B
:100FA800310886003208870044313C30C03F0030A9
:100FB800C13F310886003208870046310030C03F03
:100FC800C13F3208A1003108A0000800200011101C
:100FD8007D08F1007C08F0008D312825873121003B
:100FE8005B085C040319F92FFA2FFF2F5C088A00AD
:080FF8005B080A0087310800C4
:1019080020001B1408001630210097000800320040
:101918009101920193019401950196010800270015
:10192800191C972C982C9B2C8C31F8248C3108008E
:101938006230320099009B019D0103309F009E0197
:101948000800200021082100DE00200020082100D6
:10195800DD000800200021082100DC00200020080C
:101968002100DB00080020006708F3006608F20089
:101978006508F1006408F000080001302000E40761
:101988000030E53D0030E63D0030E73D080020002E
:101998006708A3006608A2006508A1006408A00003
:1019A80008002000A3002308A2002208A00000309D
:1019B8008E31E8268C310800640080010131013045
:1019C800FE020030FF3B7F087E04031DE12C00343B
:1019D800FE0012001E000130FE020030FF3B7F08AF
:1019E8007E04031DED2C003421005D085E040319FC
:1019F800FE2CFF2C042D5E088A005D080A008D313C
:101A08002700191008008C318B248D318E31632604
:101A18008D318C319C248D318C3187248D318D31E1
:101A28004C258D31080000308D31F6258D318C31F3
:101A3800B7248D3173082100C7007208C6007108E9
:101A4800C5007008C400080020001B1D2C2D2D2D7A
:101A5800342D1B1071089A00700899001B14382D3A
:101A680071089A007008990008002000A00064001E
:101A780031009518402D422D20003B2D15172000D0
:101A880020083100910070309200151413080800E6
:101A980020009C01FF309A00990111101A08FD00DE
:101AA8001908FC0021001114C1302000A0000C30DE
:101AB800A1008C31AE248D3108008D3107258D3180
:101AC8008B170B178D314C258D318C3184248D313A
:101AD80000308E313D268D31C8302000DB000030CB
:101AE800DC00843194248D31080020002508803AD8
:101AF800A60080302602031D832D0130240203181E
:101B0800862D872D942D20002409A6002509A700DD
:101B1800A60A0319A70A2608A4002708A500942DD9
:101B280008002000A401A501201C9B2D9C2DA02DA0
:101B38002208A4072308A53D0130A235A30D890B6F
:101B4800A12D0130A136A00C890BA62D2008210457
:101B5800031DAF2DB02D982D2508A1002408A00045
:101B680008000034003400340134003400340134F7
:101B780000340034003401340134013401340034B9
:101B880000340034013401340034013400340034AA
:101B98000134003401340034013401340034013498
:101BA800003400308D3139258D312000A100210805
:101BB800A20022080319E12DE22DF42D22030319B6
:101BC800E62DE72DF42D023022060319EC2DED2D1C
:101BD800F42D033022060319F22DF32DF42DA20162
:101BE80022080800F6007608F5007508F0000030B5
:101BF80086315C268D317608F5007508F0000130D5
:101C080086315C268D317608F5007508F0000230C3
:101C180086315C268D317608F5007508F0000330B2
:101C280086315C268D3108002000A701A80127080D
:101C38002207A3002308860087010108A4002708BB
:101C48002007A5002808213DA600250886002608AB
:101C58008700240881000130A7070030A83D003024
:101C68002802043003192702031C3B2E3C2E1B2E8E
:101C780008002000A6002608A5002508A0000030BE
:101C88008631D1268E3120002608A5002508A0001F
:101C980001308631D1268E3120002608A50025087E
:101CA800A00002308631D1268E3120002608A500FA
:101CB8002508A00003308631D1268E310800220085
:101CC8008C0120308E00373021008C0021308E00AE
:101CD80023008E0133308C0024008C011E308E00CE
:101CE80025008C018E01373026008C003F308E0095
:101CF8003F3027008C003F308E0019101810171441
:101D080017302000A0000D30A1008C31A5248E31A1
:101D18002100101608008D3161258E318F31C127C1
:101D28008E31003A031D992E9A2E9B2E922E8F31BA
:101D380016278E31003A0319A22EA32EB02E2000AA
:101D48006E08031DA82EA92EB02EC830A40000309E
:101D5800A5008531CD258E3120006E08E30063088B
:101D6800ED00853132258E31922E803128282000D1
:101D7800B90087319B278E3120002108B800200840
:101D8800B7003808A1003708A0003908B60036089F
:101D9800A2008E3118268E312000370886003808B8
:101DA800870044313308C03F3408C13F37088600F4
:101DB8003808870046313508C03F0030C13F380831
:101DC800B4003708B30008002000A10031009518BE
:101DD800EE2EEF2EEA2E1517200021083100910073
:101DE80070309200940120002008310093002000F8
:101DF80003108B1F002F012F022F03148B133100A8
:101E0800151555309600AA309600951495180D2F83
:101E18000E2F0A2F15112000031C132F142F152F16
:101E28008B170800003020008E1A0130EE006E0873
:101E38006D060319202F212F362FA201A301382F59
:101E480004302000A0003D30890B282FA00B282F3C
:101E5800003220000E0E890C01396E060319352F49
:101E6800362F382F0030492F2308A1002208A00060
:101E7800A20A0319A30A0030210203300319200221
:101E8800031C472F482F242F013008002000BA01D7
:101E9800BB0120003A08350786003B08363D87001D
:101EA8000108B7003A083307B8003B08343DB900C9
:101EB8003808860039088700370881000130BA07DA
:101EC8000030BB3D3B08803AB70080303702031D25
:101ED8006F2F04303A02031C722F732F4D2F2000EE
:101EE80035088600360887004431330884003408F2
:101EF80085000431403F803F413F813F080000306A
:101F080020006902063003196802031C8C2F8D2FEC
:101F1800902FA801A901C02F6908A1006808A00096
:101F28000330A2000030A3008D3195258F31203079
:101F38002000B3000130B40020083307B5002108A1
:101F4800343DB6000130E8070030E93D3508860029
:101F580036088700810187319B278F31200035089B
:101F680086003608870041312008C03F2108C13F5C
:101F78003608A9003508A800080020000E1CC52F47
:101F8800C62FDF2F00308E313D268F318C31CB2488
:101F98008F31200023082100C700200022082100DB
:101FA800C600200021082100C500200020082100CB
:101FB800C4000030FF2F8C31CB248F31210044081E
:101FC80020002002A400210045082000213BA50094
:101FD8008D3179258F3120002508803AA800873077
:101FE8002802031DF92FD13024020318FC2FFE2FDD
:081FF8000130FF2F003008004A
:020000040001F9
:08000E00ECFFF3FFFFFFFFFF11
:00000001FF
