:020000040000FA
:0400000080312828FB
:100008007E1480312100101E0A280B281428200095
:10001800101E0F28102814288131DA218031262853
:100028000B1F1728182826282100111C1C281D28FA
:1000380026282000111C21282228262881318721E2
:10004800803126287E10090080312A28DE3084007D
:10005800213085004A30FE000130FF008131B12196
:100068008031F701F801F901203084000030850063
:100078002530FE000030FF008131B12180317E1033
:1000880020008031D028F5006228720C2200031C61
:100098008E1003188E14720C2200031C0E11031804
:1000A8000E15720C2200031C8E1103188E15720C8B
:1000B8002200031C0E1203180E1678287508F30088
:1000C800F4017408003A03196A285B287308013A96
:1000D80003194928033A03194F28013A03195528E7
:1000E800073A03195B285B28080078087706031984
:1000F8007E287F289228F401F50194280430F20024
:100108003E30890B8528F20B852820000E0E890CBD
:100118000139780603199128922894280030A528D7
:100128007508F3007408F200F40A0319F50A0030A0
:100138007302033003197202031CA328A42882281F
:100148000130080022008C0120308E003730210059
:100158008C0021308E0023008E0133308C00240067
:100168008C018E0125008C018E01373026008C0011
:100178003F308E003F3027008C003F308E00191032
:1001880018101714FE30F2000130F3008131F1210C
:10019800803121001016080081316721803100303C
:1001A80020008E1A0130F800803179208031003A21
:1001B8000319DF28E028EE287808031DE428E5283D
:1001C800EA2801308031F6208031EE280030803175
:1001D800F620803178082000CA004A08F700D328A2
:1001E800803128282000C9004908F6007608F20066
:1001F800013080314720803120004908F600760818
:10020800F200023080314720803120004908F60092
:100218007608F200033080314720803120004908F9
:10022800F6007608F200043080314720803108005B
:1002380041347334733465347234743469346F34CC
:100248006E3420346634613469346C346534643413
:100258003A34203425347334203428342534733424
:100268003A342034253473343A3420342534643411
:1002780029340A34003420009C01FF309A00990187
:1002880011101A08FB001908FA0021001114003097
:10029800F2000030F3008131EB2181310130200080
:1002A8009B00080020001B1D5A295B2962291B108E
:1002B80071089A00700899001B14662971089A0041
:1002C8007008990008008131772181318B170B174D
:1002D80081313F2181318131FB21813100308031F1
:1002E800F620813108008131E32181318031A62057
:1002F80081318131D12181318131F72181318131C0
:100308003F2181310800200011107B08F1007A0894
:10031800F00081315621813101302000C1070030C1
:10032800C23D080020004708480403199C299D295C
:10033800A22948088A0047080A00813127001910B5
:10034800080041347034703465346E346434533486
:1003580074346134673465340034640080010131D9
:100368000130FE020030FF3B7F087E04031DB229E6
:1003780000346834653461346434203421343D34C5
:100388002034303400345034613474347434653477
:1003980072346E342E346334003462303200990083
:1003A8009B019D0103309F009E0108002700191C36
:1003B800DE29DF29E22981319621813108003200C6
:1003C8009101920193019401950196010800730827
:1003D8002000C6007208C500080073082000C80085
:1003E8007208C70008001630210097000800200096
:0603F8001B1408000800C0
:020000040001F9
:08000E00ECFFF3FFFFFFFFFF11
:00000001FF
