:020000040000FA
:0400000080312828FB
:100008007E1480312100101E0A280B281428200095
:10001800101E0F28102814288131462180312628E7
:100028000B1F1728182826282100111C1C281D28FA
:1000380026282000111C21282228262881312F213A
:10004800803126287E10090080312A28F901FA011A
:10005800FB012000A001A101A201A301A401A501A7
:100068007E102000803138288031EE208031003029
:1000780020008E1A0130F800803180208031003A4B
:1000880003194728482858287808031D4C284D2864
:10009800532822008E140E158E150E16582822008D
:1000A8008E100E118E110E12200024087902AA005B
:1000B80025087A3BAB0003302B02E93003192A02EA
:1000C800031C6728682878287A08A5007908A400FE
:1000D800031022008E1C03140318732876282200AC
:1000E8008E14782822008E1078082000AA002A088A
:1000F800FB003B288031282878087B0603198528CF
:1001080086289928F401F5019B280430F2003E3036
:10011800890B8C28F20B8C2820000E0E890C0139D3
:1001280078060319982899289B280030AC28750868
:10013800F3007408F200F40A0319F50A0030730298
:10014800033003197202031CAA28AB28892801303E
:10015800080022008C0120308E00373021008C00EE
:1001680021308E0023008E0137308C0024008C0152
:100178008E0125008C018E01373026008C003F301F
:100188008E003F3027008C003F308E001910181069
:1001980017146A30F2000130F30081315D2180319B
:1001A80021001016080020009C01FF309A009901D8
:1001B80011101A08F7001908F60021001114003070
:1001C800F2000030F30081315721803101302000E6
:1001D8009B0008008131102180318B170B1780316B
:1001E800D720803181316721803122008E100E1195
:1001F8008E110E12080020001B1D032904290B294B
:100208001B1071089A00700899001B140F297108B7
:100218009A0070089900080081314F21813180319E
:10022800AD20813181313D2181318131632181319D
:100238008031D720813108002000280829040319BB
:10024800262927292C2929088A0028080A0081310B
:10025800270019100800200011107708F10076080F
:10026800F0008031FF2081310130F9070030FA3D7C
:1002780008006230320099009B019D0103309F0005
:100288009E0108002700191C4A294B294E29813153
:1002980020218131080032009101920193019401DB
:1002A80095019601080073082000A7007208A600AF
:1002B800080073082000A9007208A800080016307A
:0E02C80021009700080020001B140800080009
:020000040001F9
:08000E00ECFFF3FFFFFFFFFF11
:00000001FF
