:020000040000FA
:0400000080312828FB
:100008007E1480312100101E0A280B281428200095
:10001800101E0F28102814288C31A9248031262876
:100028000B1F1728182826282100111C1C281D28FA
:1000380026282000111C2128222826288D316D25EC
:10004800803126287E10090080312A28D730840084
:100058008D308500CD308600003087000030FF00ED
:1000680020308C31F9248031F03084002030850034
:100078000030FE000330FF008C31ED248031FB019D
:10008800FC01FD0164308400003085000B30FE0067
:100098000030FF008C31ED248031A0308400003026
:1000A80085002D30FE000030FF008C31ED248031BA
:1000B8007E1020008E318F2E2000440886004508CF
:1000C800870001308100210064082000CA00210057
:1000D80063082000C900210062082000C800210030
:1000E80061082000C7003C30B3000030B400B501FF
:1000F80047308E31BB26803120003408D0003308C9
:10010800CF00210060082000CE0021005F082000F9
:10011800CD0021005E082000CC0021005D082000F1
:10012800CB003C30B3000030B400B5014B308E3109
:10013800BB26803120003408D2003308D100873133
:100148008E27803120002108D8002008D7004408D5
:100158008600450887004131403FD900413FDA0019
:10016800D301D40120005A08BD005908BC008731CA
:100178008E27803120002108B4002008B3005008E1
:10018800B6004F08B5008F314A2780312000340867
:10019800BF003308BE0087313627803120005A0857
:1001A800BD005908BC0087318E2780312000210806
:1001B800B4002008B3005808B6005708B5008F31BE
:1001C8004A27803120003408BF003308BE00873139
:1001D8003627803101302000D3070030D43D540841
:1001E800803AC60080304602031DFC2803305302C3
:1001F800031CFF280029B62820005A08BD0059080A
:10020800BC0087318E27803120002108B4002008E7
:10021800B3005808B6005708B5008F314A27803117
:1002280020003408BF003308BE00873136278031EC
:100238002000D501D60120005A08BD005908BC008D
:1002480087318E27803120002108B4002008B300B0
:100258005208B6005108B5008F314A278031200076
:100268003408BF003308BE008731362780312000AC
:100278005A08BD005908BC0087318E2780312000FC
:100288002108B4002008B3005808B6005708B50084
:100298008F314A27803120003408BF003308BE0060
:1002A80087313627803101302000D5070030D63D10
:1002B8005608803AC60080304602031D652903307F
:1002C8005502031C682969291F29080020004408D1
:1002D8008600450887000230810021005C08200064
:1002E800CA0021005B082000C90021005A0820002C
:1002F800C800210059082000C7003C30B300003076
:10030800B400B50147308E31BB2681312000340856
:10031800D0003308CF00210058082000CE0021006B
:1003280057082000CD00210056082000CC002100ED
:1003380055082000CB003C30B3000030B400B501B4
:100348004B308E31BB26813120003408D20033086F
:10035800D10087318E27813120002108D80020085C
:10036800D70044088600450887004131403FD9003E
:10037800413FDA00D301D40120005A08BD005908D2
:10038800BC0087318E27813120002108B400200865
:10039800B3005008B6004F08B5008F314A278131A5
:1003A80020003408BF003308BE008731362781316A
:1003B80020005A08BD005908BC0087318E278131BA
:1003C80020002108B4002008B3005808B6005708D8
:1003D800B5008F314A27813120003408BF00330827
:1003E800BE0087313627813101302000D307003025
:1003F800D43D5408803AC60080304602031D062AC0
:1004080003305302031C092A0A2AC02920005A086B
:10041800BD005908BC0087318E2781312000210892
:10042800B4002008B3005808B6005708B5008F314B
:100438004A27813120003408BF003308BE008731C5
:10044800362781312000D501D60120005A08BD0089
:100458005908BC0087318E27813120002108B4005B
:100468002008B3005208B6005108B5008F314A275A
:10047800813120003408BF003308BE008731362799
:10048800813120005A08BD005908BC0087318E27E9
:10049800813120002108B4002008B3005808B600B4
:1004A8005708B5008F314A27813120003408BF0032
:1004B8003308BE0087313627813101302000D50747
:1004C8000030D63D5608803AC60080304602031DEB
:1004D8006F2A03305502031C722A732A292A08003E
:1004E8002000440886004508870003308100210069
:1004F80054082000CA00210053082000C900210028
:1005080052082000C800210051082000C7003C30D4
:10051800B3000030B400B50147308E31BB268231BC
:1005280020003408D0003308CF00210050082000F4
:10053800CE0021004F082000CD0021004E082000E9
:10054800CC0021004D082000CB003C30B300003027
:10055800B400B5014B308E31BB26823120003408FF
:10056800D2003308D10087318E278231200021083C
:10057800D8002008D7004408860045088700413184
:10058800403FD900413FDA00D301D40120005A0886
:10059800BD005908BC0087318E2782312000210810
:1005A800B4002008B3005008B6004F08B5008F31DA
:1005B8004A27823120003408BF003308BE00873143
:1005C8003627823120005A08BD005908BC008731FF
:1005D8008E27823120002108B4002008B300580873
:1005E800B6005708B5008F314A27823120003408F9
:1005F800BF003308BE008731362782310130200022
:10060800D3070030D43D5408803AC60080304602F3
:10061800031D102B03305302031C132B142BCA2A5F
:1006280020005A08BD005908BC0087318E27823146
:1006380020002108B4002008B3005808B600570865
:10064800B5008F314A27823120003408BF003308B3
:10065800BE008731362782312000D501D60120001F
:100668005A08BD005908BC0087318E278231200006
:100678002108B4002008B3005208B6005108B5009C
:100688008F314A27823120003408BF003308BE006A
:1006980087313627823120005A08BD005908BC002E
:1006A80087318E27823120002108B4002008B3004A
:1006B8005808B6005708B5008F314A278231200004
:1006C8003408BF003308BE00873136278231013035
:1006D8002000D5070030D63D5608803AC600803045
:1006E8004602031D792B03305502031C7C2B7D2BFE
:1006F800332B080020004408860045088700810144
:1007080021006C082000CA0021006B082000C900E5
:1007180021006A082000C800210069082000C700DD
:100728003C30B3000030B400B50147308E31BB26F1
:10073800833120003408D0003308CF002100680836
:100748002000CE00210067082000CD0021006608A7
:100758002000CC00210065082000CB003C30B3000D
:100768000030B400B5014B308E31BB2683312000F8
:100778003408D2003308D10087318E278331200016
:100788002108D8002008D7004408860045088700BB
:100798004131403FD900413FDA00D301D401200064
:1007A8005A08BD005908BC0087318E2783312000C4
:1007B8002108B4002008B3005008B6004F08B5005F
:1007C8008F314A27833120003408BF003308BE0028
:1007D80087313627833120005A08BD005908BC00EC
:1007E80087318E27833120002108B4002008B30008
:1007F8005808B6005708B5008F314A2783312000C2
:100808003408BF003308BE008731362783310130F2
:100818002000D3070030D43D5408803AC600803009
:100828004602031D192C03305302031C1C2C1D2CDB
:10083800D32B20005A08BD005908BC0087318E27E9
:10084800833120002108B4002008B3005808B600FE
:100858005708B5008F314A27833120003408BF007C
:100868003308BE008731362783312000D501D601F1
:1008780020005A08BD005908BC0087318E278331F3
:1008880020002108B4002008B3005208B60051081F
:10089800B5008F314A27833120003408BF00330860
:1008A800BE0087313627833120005A08BD00590819
:1008B800BC0087318E27833120002108B40020082E
:1008C800B3005808B6005708B5008F314A2783315E
:1008D80020003408BF003308BE0087313627833133
:1008E80001302000D5070030D63D5608803AC600B2
:1008F80080304602031D822C03305502031C852CD0
:10090800862C3C2C08002000E101E2018F3183276E
:10091800843120006208DE006108DD00DD35DE0D6F
:100928005D085B0786005E085C3D87002808C03FBD
:100938002908C13F0130E1070030E23D6208803AF2
:10094800DD0080305D02031DAB2C06306102031C04
:10095800AE2CAF2C8A2C8D31F72584312000DD0098
:100968005B080C3EDE0000305C3DDF005E08860060
:100978005F0887005D0881005B0886005C088700C7
:10098800403FC400413FC50083317E2384312000AD
:100998005B0886005C0887004231403FC400413F45
:1009A800C50080316020843120005B0886005C0827
:1009B80087004431403FC400413FC50081316A216E
:1009C800843120005B0886005C0887004631403F80
:1009D800C400413FC50082317422843120005B0885
:1009E80086005C0887004C310108DD00DE01DD353A
:1009F800DE0D5D085B0786005E085C3D8700403FB2
:100A0800DF00413FE0005F08860060088700413151
:100A18005B0884005C0885000D31403F803F413F02
:100A2800813F5B080F3EDD0000305C3DDE005D0865
:100A380086005E0887000030C03FC13FC23FC33F09
:100A480008008C31D824853120002108B000200806
:100A5800AF002F08A5003008A600A701A8012100B3
:100A680037082000A502210038082000A63B2100F5
:100A780039082000A73B21003A082000A83B2100A4
:100A880035088600360887004431403F2000A90019
:100A9800413FAA002908AB002A08AC00AD01AE010D
:100AA80028082E02031D622D27082D02031D622D22
:100AB80026082C02031D622D25082B020318652D1C
:100AC800662D7D2D210035088600360887004631C1
:100AD800403FB500413FB60020002F082100B70075
:100AE800200030082100B800B901BA012000EC014B
:100AF800EC0A6C03031D812D822DBF2D21003508C2
:100B080086003608870001082000A5002508A000F7
:100B180000308631C4268531210035088600360824
:100B28008700413101082000A5002508A0000130F8
:100B38008631C426853121003508860036088700AD
:100B4800423101082000A5002508A00002308631A6
:100B5800C4268531210035088600360887004331D0
:100B680001082000A5002508A00003308631C4260E
:100B780085312000EC010800F62D24080C3EA60063
:100B88000030253DA7002608860027088700013089
:100B98008100122E24080C3EA6000030253DA70037
:100BA800260886002708870002308100122E2408B4
:100BB8000C3EA6000030253DA70026088600270821
:100BC800870003308100122E24088600250887003C
:100BD8004C318101122E24088600250887004C31EB
:100BE8008101122E200024088600250887004C3138
:100BF8000108A600A7012708003A0319042EEF2DC3
:100C08002608003A0319C12D013A0319CE2D033ADB
:100C18000319DB2D013A0319E82DEF2D240886006E
:100C2800250887004C310108A600A701A635A70DA5
:100C38002608240786002708253D8700403FA8008E
:100C4800413FA90028088600290887004131240867
:100C58008400250885000D31403F803F413F813F9A
:100C680024088600250887004C3101088C31E224CD
:100C78008531200024088600250887004C310108AA
:100C8800A600A701A635A70D260824078600270871
:100C9800253D87000800F3007008F1007108F40092
:100CA800AD2E20000E0E0139740603195C2E5D2E40
:100CB800C32E031022000E1E03140318642E672E81
:100CC80022000E16692E22000E12C32E20000E0CD2
:100CD800F100F10C710C013974060319742E752E8C
:100CE800C32E031022008E1D031403187C2E7F2EA2
:100CF80022008E15812E22008E11C32E20000E0C8C
:100D0800890C0139740603198A2E8B2EC32E031001
:100D180022000E1D03140318922E952E22000E1584
:100D2800972E22000E11C32E20000E0C01397406D6
:100D380003199F2EA02EC32E031022008E1C03140D
:100D48000318A72EAA2E22008E14AC2E22008E1075
:100D5800C32E7308F100F2017208003A0319B52E88
:100D6800982E7108003A0319552E013A03196A2E74
:100D7800033A0319822E013A0319982E982E080077
:100D88002000A3002008A1002108A4001F2F0E0E98
:100D9800013924060319D12ED22E352F0310220033
:100DA8000E1E03140318D92EDC2E22000E16DE2E7A
:100DB80022000E12352F0E0CA100A10C210C0139B6
:100DC80024060319E82EE92E352F031022008E1D64
:100DD80003140318F02EF32E22008E15F52E220090
:100DE8008E11352F0E0C890C013924060319FD2E9E
:100DF800FE2E352F031022000E1D03140318052F95
:100E0800082F22000E150A2F22000E11352F0E0C66
:100E1800013924060319112F122F352F0310220030
:100E28008E1C03140318192F1C2F22008E141E2F3A
:100E380022008E10352F2308A100A2012208003AB3
:100E48000319272F0B2F2108003A0319CB2E013A3B
:100E58000319DF2E033A0319F62E013A03190B2F53
:100E68000B2F080020003C0886003D08870046310B
:100E780016000104031D412F422F552F3C08860000
:100E88003D08870046313E08C03F3F08C13F3E0845
:100E980086003F08870046313C08C03F3D08C13FF7
:100EA8008D2F3C0886003D0887004631403FC20030
:100EB800413FC300682F4208860043088700463137
:100EC800403FC200413FC3004208860043088700F4
:100ED8004631403FC000413FC1003D084106031D67
:100EE800772F3C084006031D7A2F7B2F5F2F42087F
:100EF80086004308870046313E08C03F3F08C13F8F
:100F08003E0886003F08870046313C08C03F3D0840
:100F1800C13F0800003020006B02603003196A02EC
:100F2800031C972F982F9B2FA001A101DC2F6B0882
:100F3800AA006A08A900A935AA0DA935AA0DA935DC
:100F4800AA0DF030AB002030AC0029082B07B10007
:100F58002A082C3DB2000130EA070030EB3D003092
:100F6800B0000030AF000030AE000030AD003208F5
:100F7800A1003108A0002D30A9002908A2008E3157
:100F8800182687312000310886003208870044314E
:100F98003C30C03F0030C13F31088600320887002E
:100FA80046310030C03FC13F3208A1003108A000DF
:100FB8000800F6007608F5007508F0000030863164
:100FC8004F2687317608F5007508F0000130863124
:100FD8004F2687317608F5007508F0000230863113
:100FE8004F2687317608F5007508F0000330863102
:060FF8004F2687310800BE
:1019280020001B1408001630210097000800200032
:101938002108FA002008F9000800320091019201FC
:10194800930194019501960108002700191CAD2CFC
:10195800AE2CB12C8D3105258C3108006230320057
:1019680099009B019D0103309F009E010800200003
:1019780021082100EE00200020082100ED000800C9
:1019880020006708F3006608F2006508F1006408A3
:10199800F000080001302000E4070030E53D003089
:1019A800E63D0030E73D080020006708A300660810
:1019B800A2006508A1006408A00008002000A30098
:1019C8002308A2002208A00000308E31E8268C31BE
:1019D80008006400800101310130FE020030FF3B45
:1019E8007F087E04031DEE2C0034FE0012001E004A
:1019F8000130FE020030FF3B7F087E04031DFA2CF5
:101A0800003479087A0403190A2D0B2D102D7A0851
:101A18008A0079080A008D312700191008008C31D6
:101A2800A1248D318E3163268D318C31B2248D31D4
:101A38008C3197248D318D3158258D310800003037
:101A48008731DD278D318C31C4248D317308210015
:101A5800A7007208A6007108A5007008A400080075
:101A680020001B1D382D392D402D1B1071089A00A0
:101A7800700899001B14442D71089A007008990089
:101A880008002000A0006400310095184C2D4E2D50
:101A98002000472D151720002008310091007030D4
:101AA800920015141308080020009C01FF309A00CA
:101AB800990111101A08F8001908F70021001114EB
:101AC800CE302000A0000C30A1008C31BB248D3119
:101AD8000800200011107808F1007708F0008D3117
:101AE80034258D3121006D086E0403197C2D7D2D60
:101AF800822D6E088A006D080A008D3108008D312C
:101B080013258D318B170B178D3158258D318C315D
:101B180094248D3100308E313D268D31A83020003F
:101B2800DB000030DC00843187248D310800200080
:101B38002508803AA60080302602031DA52D013015
:101B480024020318A82DA92DB62D20002409A600CB
:101B58002509A700A60A0319A70A2608A40027082A
:101B6800A500B62D08002000A401A501201CBD2D4C
:101B7800BE2DC22D2208A4072308A53D0130A23599
:101B8800A30D890BC32D0130A136A00C890BC82DDC
:101B980020082104031DD12DD22DBA2D2508A1001E
:101BA8002408A00008000034003400340134003454
:101BB8000034013400340034003401340134013479
:101BC8000134003400340034013401340034013469
:101BD8000034003401340034013400340134013459
:101BE80000340134003400308D3145258D3120001A
:101BF800A1002108A20022080319032E042E162E84
:101C080022030319082E092E162E02302206031964
:101C18000E2E0F2E162E033022060319142E152E03
:101C2800162EA201220808002000A701A8012708F3
:101C38002207A3002308860087010108A4002708BB
:101C48002007A5002808213DA600250886002608AB
:101C58008700240881000130A7070030A83D003024
:101C68002802043003192702031C3B2E3C2E1B2E8E
:101C780008002000A6002608A5002508A0000030BE
:101C88008631C4268E3120002608A5002508A0002C
:101C980001308631C4268E3120002608A50025088B
:101CA800A00002308631C4268E3120002608A50007
:101CB8002508A00003308631C4268E310800220092
:101CC8008C0120308E00373021008C0021308E00AE
:101CD80023008E0133308C0024008C011E308E00CE
:101CE80025008C018E01373026008C003F308E0095
:101CF8003F3027008C003F308E0019101810171441
:101D080023302000A0000D30A1008C319B248E319F
:101D18002100101608008D3183258E318F31C1279F
:101D28008E31003A031D992E9A2E9B2E922E8F31BA
:101D380016278E31003A0319A22EA32EB02E2000AA
:101D48006E08031DA82EA92EB02EA830A4000030BE
:101D5800A5008531C0258E3120006E08E300630898
:101D6800ED00853125258E31922E803128282000DE
:101D7800B90087318E278E3120002108B80020084D
:101D8800B7003808A1003708A0003908B60036089F
:101D9800A2008E3118268E312000370886003808B8
:101DA800870044313308C03F3408C13F37088600F4
:101DB8003808870046313508C03F0030C13F380831
:101DC800B4003708B30008002000A10031009518BE
:101DD800EE2EEF2EEA2E1517200021083100910073
:101DE80070309200940120002008310093002000F8
:101DF80003108B1F002F012F022F03148B133100A8
:101E0800151555309600AA309600951495180D2F83
:101E18000E2F0A2F15112000031C132F142F152F16
:101E28008B170800003020008E1A0130EE006E0873
:101E38006D060319202F212F362FA201A301382F59
:101E480004302000A0003D30890B282FA00B282F3C
:101E5800003220000E0E890C01396E060319352F49
:101E6800362F382F0030492F2308A1002208A00060
:101E7800A20A0319A30A0030210203300319200221
:101E8800031C472F482F242F013008002000BA01D7
:101E9800BB0120003A08350786003B08363D87001D
:101EA8000108B7003A083307B8003B08343DB900C9
:101EB8003808860039088700370881000130BA07DA
:101EC8000030BB3D3B08803AB70080303702031D25
:101ED8006F2F04303A02031C722F732F4D2F2000EE
:101EE80035088600360887004431330884003408F2
:101EF80085000431403F803F413F813F080000306A
:101F080020006902063003196802031C8C2F8D2FEC
:101F1800902FA801A901C02F6908A1006808A00096
:101F28000330A2000030A3008D31B7258F31BB30BC
:101F38002000B3000030B40020083307B5002108A2
:101F4800343DB6000130E8070030E93D3508860029
:101F580036088700810187318E278F3120003508A8
:101F680086003608870041312008C03F2108C13F5C
:101F78003608A9003508A800080020000E1CC52F47
:101F8800C62FDF2F00308E313D268F318C31D8247B
:101F98008F31200023082100A700200022082100FB
:101FA800A600200021082100A5002000200821000B
:101FB800A4000030FF2F8C31D8248F312100240851
:101FC80020002002A400210025082000213BA500B4
:101FD8008D319B258F3120002508803AA800873055
:101FE8002802031DF92FD13024020318FC2FFE2FDD
:081FF8000130FF2F003008004A
:020000040001F9
:08000E00ECFFF3FFFFFFFFFF11
:00000001FF
