:020000040000FA
:0400000080312828FB
:100008007E1480312100101E0A280B281428200095
:10001800101E0F28102814288331EB23803126283E
:100028000B1F1728182826282100111C1C281D28FA
:1000380026282000111C2128222826288331B823AD
:10004800803126287E10090080312A28F430840067
:10005800833085001200E2001200E3001200E40081
:100068001200E5001200E6001200E7001200E800A6
:100078001200E900B0308400223085004030FE00D4
:100088000130FF008331D6238031FA01FB0154305F
:100098008400003085000E30FE000030FF00833100
:1000A800D62380312100A001A101A201A3017E1065
:1000B80020008231FB2A20003D0886003E08870088
:1000C80081016908C3006808C2006708C1006608A2
:1000D800C0005030AC000030AD00AE01403082317D
:1000E8007722803120002D08C9002C08C800650837
:1000F800C7006408C6006308C5006208C400503021
:10010800AC000030AD00AE0144308231772280313E
:1001180020002D08CB002C08CA008131BD21803178
:1001280078082000D1007708D0008131BD218031C6
:1001380020003D0886003E08870041317708C03F0F
:100148007808C13F3D0886003E0887004131403F9E
:10015800D200413FD300CC01CD0120005308B600A6
:100168005208B5008131BD21803178082000AD00EA
:100178007708AC004908AF004808AE0082310C226D
:10018800803120002D08B8002C08B7008131652186
:10019800803120005308B6005208B5008131BD21D6
:1001A800803178082000AD007708AC005108AF0016
:1001B8005008AE0082310C22803120002D08B80092
:1001C8002C08B70081316521803101302000CC072F
:1001D8000030CD3D4D08803ABF0080303F02031DFE
:1001E800F72803304C02031CFA28FB28B12820000A
:1001F8005308B6005208B5008131BD218031780816
:100208002000AD007708AC005108AF005008AE00E0
:1002180082310C22803120002D08B8002C08B7004C
:100228008131652180312000CE01CF0120005308A3
:10023800B6005208B5008131BD2180317808200010
:10024800AD007708AC004B08AF004A08AE00823119
:100258000C22803120002D08B8002C08B70081310D
:100268006521803120005308B6005208B50081315D
:10027800BD21803178082000AD007708AC00510816
:10028800AF005008AE0082310C22803120002D08CA
:10029800B8002C08B7008131652180310130200079
:1002A800CE070030CF3D4F08803ABF0080303F0274
:1002B800031D602903304E02031C632964291A298F
:1002C80008002000350886003608870046311600E9
:1002D8000104031D70297129842935088600360810
:1002E800870046313708C03F3808C13F37088600C5
:1002F8003808870046313508C03F3608C13FBC2959
:1003080035088600360887004631403FBB00413F2C
:10031800BC0097293B0886003C0887004631403FCF
:10032800BB00413FBC003B0886003C0887004631C3
:10033800403FB900413FBA0036083A06031DA629D6
:1003480035083906031DA929AA298E293B088600E4
:100358003C08870046313708C03F3808C13F370896
:1003680086003808870046313508C03F3608C13F47
:100378000800003020005502283003195402031CDD
:10038800C629C729CA29F701F8010B2A5508A3006D
:100398005408A200A235A30DA235A30DA235A30DC2
:1003A800B030A4002230A50022082407AA002308A0
:1003B800253DAB000130D4070030D53D0030A90001
:1003C8000030A8000030A7000030A6002B08F3007A
:1003D8002A08F2002630A2002208F40083312123E3
:1003E800813120002A0886002B08870044315030CC
:1003F800C03F0030C13F2A0886002B0887004631DD
:100408000030C03FC13F2B08F8002A08F700080059
:100418002000B301B401200033082E0786003408F9
:100428002F3D87000108B00033082C07B1003408BD
:100438002D3DB2003108860032088700300881005F
:100448000130B3070030B43D3408803AB000803042
:100458003002031D312A04303302031C342A352AA2
:100468000F2A20002E0886002F08870044312C0808
:1004780084002D0885000431403F803F413F813F83
:100488000800F500602A720C2200031C8E10031865
:100498008E14720C2200031C0E1103180E15720C18
:1004A8002200031C8E1103188E15720C2200031CE7
:1004B8000E1203180E16762A7508F300F401740854
:1004C800003A0319682A592A7308003A0319472A77
:1004D800013A03194D2A033A0319532A013A031919
:1004E800592A592A08002000AF008131BD218231E4
:1004F80078082000B1007708B0003108F300300810
:10050800F2002F08F9007908F400833121238231A1
:100518002000300886003108870044312C08C03F8D
:100528002D08C13F300886003108870046312E0863
:10053800C03F0030C13F3108AD003008AC000800B2
:100548007B087A060319A92AAA2ABD2AF401F5010B
:10055800BF2A0430F2003E30890BB02AF20BB02AD1
:1005680020000E0E890C01397B060319BC2ABD2A0E
:10057800BF2A0030D02A7508F3007408F200F40A84
:100588000319F50A00307302033003197202031CC1
:10059800CE2ACF2AAD2A0130080022008C01203053
:1005A8008E00373021008C0021308E0023008E0110
:1005B80033308C0024008C018E0125008C018E01C3
:1005C800373026008C003F308E003F3027008C00EB
:1005D8003F308E001910181017141730F20004302D
:1005E800F30084310A248231210010160800833177
:1005F80068238231003020008E1A0130FB008231DE
:10060800A4228231003A03190A2B0B2B192B7B08E1
:10061800031D0F2B102B152B0130833146238231FC
:10062800192B00308331462382317B082100A40036
:100638002408FA00FE2A803128282000A001A10100
:1006480020087407F5007508860087010108F60080
:1006580020087207F7002108733DF8007708860024
:1006680078088700760881000130A0070030A13D96
:1006780000302102043003192002031C442B452BAF
:10068800242B0800F7007708F6007608F2000030FF
:100698008231452283317708F6007608F20001306E
:1006A8008231452283317708F6007608F20002305D
:1006B8008231452283317708F6007608F20003304C
:1006C80082314522833108008331A82383318B1777
:1006D8000B17833180238331843114248331003014
:1006E8008331462383315F302000BD000030BE00D7
:1006F80080315F208331080020009C01FF309A0080
:10070800990111101A08ED001908EC0021001114C4
:100718000030F2000030F3008431042483310130CA
:1007280020009B00080020001B1D9B2B9C2BA32B4B
:100738001B1071089A00700899001B14A72B7108E8
:100748009A007008990008008331FC2383318231B4
:10075800D12283318331E2238331843110248331E0
:100768008331802383310800200011106D08F100C7
:100778006C08F00083319723833101302000DA07B9
:100788000030DB3D080020006E086F040319CD2BF4
:10079800CE2BD32B6F088A006E080A0083312700FE
:1007A800191008006400800101310130FE02003098
:1007B800FF3B7F087E04031DD72B003462303200D4
:1007C80099009B019D0103309F009E0108002700AE
:1007D800191CEF2BF02BF32B8331C723833108002F
:1007E800003401340034013401340034013400345D
:1007F800320091019201930194019501960108003C
:1008080073082000EB007208EA0008007308200053
:10081800EF007208EE00080016302100970008006B
:0808280020001B140800080069
:020000040001F9
:08000E00ECFFF3FFFFFFFFFF11
:00000001FF
