:020000040000FA
:0400000080312828FB
:100008007E1480312100101E0A280B281428200095
:10001800101E0F28102814288131792180312628B4
:100028000B1F1728182826282100111C1C281D28FA
:1000380026282000111C2128222826288131522117
:10004800803126287E10090080312A28FA01FB0118
:100058002000A001A101A201A301A401A501A601FC
:10006800A7017E1020008031C228F5005428720CA8
:100078002200031C8E1003188E14720C2200031C1D
:100088000E1103180E15720C2200031C8E11031892
:100098008E15720C2200031C0E1203180E166A2805
:1000A8007508F300F4017408003A03195C284D2818
:1000B8007308013A03193B28033A03194128013A06
:1000C80003194728073A03194D284D2808007B08CB
:1000D8007A060319702871288428F401F501862806
:1000E8000430F2003E30890B7728F20B7728200085
:1000F8000E0E890C01397B0603198328842886286B
:10010800003097287508F3007408F200F40A031900
:10011800F50A00307302033003197202031C952894
:10012800962874280130080022008C0120308E00A7
:10013800373021008C0021308E0023008E013730AB
:100148008C0024008C018E0125008C018E01373033
:1001580026008C003F308E003F3027008C003F3057
:100168008E001910181017149D30F2000130F3009A
:10017800813190218031210010160800813132210F
:100188008031003020008E1A0130FB0080316B2056
:100198008031003A0319D128D228E0287B08031DB2
:1001A800D628D728DC2801308031E8208031E028A3
:1001B80000308031E82080317B082000AC002C081A
:1001C800FA00C52880312828F7007708F600760855
:1001D800F20001308031392080317708F600760846
:1001E800F20002308031392080317708F600760835
:1001F800F20003308031392080317708F600760824
:10020800F2000430803139208031080020009C0140
:10021800FF309A00990111101A08F9001908F8001E
:10022800210011140030F2000030F30081318A21DE
:100238008131013020009B00080020001B1D25296A
:1002480026292D291B1071089A00700899001B1483
:10025800312971089A0070089900080081314221FB
:1002680081318B170B1781310A21813181319A2114
:10027800813100308031E8208131080081318221CC
:1002880081318031982081318131702181318131F2
:100298009621813181310A21813108002000111015
:1002A8007908F1007808F00081312121813101308D
:1002B8002000A4070030A53D080020002A082B04D0
:1002C8000319672968296D292B088A002A080A005A
:1002D80081312700191008006230320099009B0113
:1002E8009D0103309F009E0108002700191C7D29ED
:1002F8007E298129813161218131080032009101F3
:100308009201930194019501960108007308200059
:10031800A9007208A800080073082000AB00720842
:10032800AA000800163021009700080020001B14BE
:0403380008000800B1
:020000040001F9
:08000E00ECFFF3FFFFFFFFFF11
:00000001FF
