:020000040000FA
:04000000803119280A
:100008007E1480310B1F09280A2817282100111C8B
:100018000E280F2817282000111C13281428172829
:100028008031882080317E10090080311B28F4013E
:10003800F501F601F7017E10200080312328803178
:10004800B9208031740876022000A0007508773B3B
:10005800A10003302102E93003192002031C3528CE
:10006800362826287708F5007608F40003102200C1
:100078008E1C031403184128442822008E14462895
:1000880022008E1003100E1D031403184C284F284D
:1000980022000E15512822000E1103108E1D031484
:1000A800031857285A2822008E155C2822008E1122
:1000B80003100E1E031403186228652822000E166A
:1000C800672822000E1226288031192822008C0168
:1000D8008E01373021008C0021308E002130230022
:1000E8008E0037308C0024008C018E0125008C0195
:1000F8008E01373026008C003F308E003F302700BD
:100108008C003F308E000800200011107308F900A1
:100118007208F8008031CA2080310130F6070030BB
:10012800F73D7008710403199A289B28A0287108C4
:100138008A0070080A008031080020009C01FF3006
:100148009A000630990011101A08F3001908F200F5
:10015800210011140830FA000130FB008031FC2026
:100168008031013020009B0008008031DB20803185
:100178008B170B178031A120803181310521803107
:1001880022008E140E158E150E16080020001B1D59
:10019800CE28CF28D6281B1079089A00780899000D
:1001A8001B14DA2879089A00780899000800803129
:1001B800F420803180316A2080318031EB20803119
:1001C8008131012180318031A120803108006230E5
:1001D800320099009B019D0103309F009E01080099
:1001E8003200910192019301940195019601080052
:1001F8007B08F1007A08F00008001630210097000B
:0A020800080020001B140800080085
:020000040001F9
:08000E00ECFFF3FFFFFFFFFF11
:00000001FF
