:020000040000FA
:0400000080312828FB
:100008007E1480312100101E0A280B281428200095
:10001800101E0F28102814288131782180312628B5
:100028000B1F1728182826282100111C1C281D28FA
:1000380026282000111C2128222826288131512118
:10004800803126287E10090080312A28FA01FB0118
:1000580020308400003085001230813189218031C0
:100068007E1020008031C128F5005328720C220030
:10007800031C8E1003188E14720C2200031C0E1120
:1000880003180E15720C2200031C8E1103188E150E
:10009800720C2200031C0E1203180E16692875082C
:1000A800F300F4017408003A03195B284C2873081C
:1000B800013A03193A28033A03194028013A031967
:1000C8004628073A03194C284C2808007B087A066A
:1000D80003196F2870288328F401F5018528043056
:1000E800F2003E30890B7628F20B762820000E0E9F
:1000F800890C01397B06031982288328852800305A
:1001080096287508F3007408F200F40A0319F50A32
:1001180000307302033003197202031C94289528D7
:1001280073280130080022008C0120308E003730FF
:1001380021008C0021308E0023008E0137308C0086
:1001480024008C018E0125008C018E013730260099
:100158008C003F308E003F3027008C003F308E00EF
:10016800191018101714A230F2000130F300813171
:10017800952180312100101608008131312180310C
:10018800003020008E1A0130FB0080316A20803157
:10019800003A0319D028D128DF287B08031DD52869
:1001A800D628DB2801308031E7208031DF28003075
:1001B8008031E72080317B082000B6003608FA003D
:1001C800C42880312828F7007708F6007608F2005E
:1001D80001308031382080317708F6007608F20047
:1001E80002308031382080317708F6007608F20036
:1001F80003308031382080317708F6007608F20025
:100208000430803138208031080020009C01FF3004
:100218009A00990111101A08F9001908F80021002C
:1002280011140030F2000030F30081318F21813148
:10023800013020009B00080020001B1D24292529CF
:100248002C291B1071089A00700899001B1430297A
:1002580071089A00700899000800813141218131A4
:100268008B170B1781310921813181319F21813110
:1002780000308031E72081310800813181218131CE
:1002880080319720813181316F21813181319B21EA
:10029800813181310921813108002000111079084C
:1002A800F1007808F00081312021813101302000EF
:1002B800AE070030AF3D08002000340835040319AC
:1002C800662967296C2935088A0034080A008131B3
:1002D8002700191008006230320099009B019D0127
:1002E80003309F009E0108002700191C7C297D29E6
:1002F8008029813160218131080032009101920109
:100308009301940195019601080064008001013170
:10031800890B8A29003473082000B3007208B200E0
:10032800080073082000B5007208B40008001630F1
:0E03380021009700080020001B140800080098
:020000040001F9
:08000E00ECFFF3FFFFFFFFFF11
:00000001FF
