:020000040000FA
:0400000080312828FB
:100008007E1480312100101E0A280B281428200095
:10001800101E0F28102814288131A7218031262886
:100028000B1F1728182826282100111C1C281D28FA
:1000380026282000111C21282228262881317421F5
:10004800803126287E10090080312A288131C42178
:100058008031B4008131C5218031B5008131C6219C
:100068008031B6008131C7218031B700B0308400BB
:10007800223085004030FE000130FF00813192219E
:100088008031F701F801F901203084000030850043
:100098001030FE000030FF008131922180317E1047
:1000A80020008031E028F5007228720C2200031C21
:1000B8008E1003188E14720C2200031C0E110318E4
:1000C8000E15720C2200031C8E1103188E15720C6B
:1000D8002200031C0E1203180E1688287508F30058
:1000E800F4017408003A03197A286B287308003A57
:1000F80003195928013A03195F28033A0319652897
:10010800013A03196B286B28080078087706031949
:100118008E288F28A228F401F501A4280430F200C3
:100128003E30890B9528F20B952820000E0E890C7D
:10013800013978060319A128A228A4280030B52877
:100148007508F3007408F200F40A0319F50A003080
:100158007302033003197202031CB328B4289228CF
:100168000130080022008C0120308E003730210039
:100178008C0021308E0023008E0133308C00240047
:100188008C018E0125008C018E01373026008C00F1
:100198003F308E003F3027008C003F308E00191012
:1001A80018101714CF30F2000130F3008131BE214E
:1001B800803121001016080081315421803100302F
:1001C80020008E1A0130F800803189208031003AF1
:1001D8000319EF28F028FE287808031DF428F528CD
:1001E800FA280130813106218031FE280030813122
:1001F8000621803178082000B9003908F700E32883
:10020800803128282000B8003808F6007608F20067
:10021800003080315720813120003808F6007608F8
:10022800F200013080315720813120003808F60073
:100238007608F200023080315720813120003808DA
:10024800F6007608F200033080315720813108002B
:1002580020009C01FF309A00990111101A08FB0038
:100268001908FA00210011140030F2000030F300E0
:100278008131B8218131013020009B000800200025
:100288001B1D472948294F291B1071089A0070081F
:1002980099001B14532971089A00700899000800E6
:1002A8008131642181318B170B1781312C218131E8
:1002B8008131CC2181310030813106218131080022
:1002C8008131B02181318031B620813181319E2147
:1002D80081318131C821813181312C21813108005E
:1002E800200011107B08F1007A08F00081314321C9
:1002F800813101302000AC070030AD3D08002000FE
:1003080032083304031989298A298F2933088A0076
:1003180032080A00813127001910080064008001A2
:1003280001310130FE020030FF3B7F087E04031DCF
:10033800932900346230320099009B019D010330FB
:100348009F009E0108002700191CAB29AC29AF2982
:10035800813183218131080032009101920193019A
:10036800940195019601080073082000B1007208F5
:10037800B000080073082000B3007208B20008003B
:10038800013400340134003416302100970008008D
:0803980020001B1408000800FE
:020000040001F9
:08000E00ECFFF3FFFFFFFFFF11
:00000001FF
