:020000040000FA
:0400000080312828FB
:100008007E1480312100101E0A280B281428200095
:10001800101E0F28102814288031E220803126284D
:100028000B1F1728182826282100111C1C281D28FA
:1000380026282000111C21282228262880317420F7
:10004800803126287E10090080312A28F601F70120
:10005800F801F9017E1020008031AB2822008C01C4
:100068008E01373021008C0021308E0023008E0154
:1000780037308C0024008C018E0125008C018E0104
:10008800373026008C003F308E003F3027008C0030
:100098003F308E0019101810171407302000A000E8
:1000A8000130A1008031F9208031210010160800AC
:1000B80020009C01FF309A00990111101A08F300E2
:1000C8001908F2002100111406302000A0000130A8
:1000D800A1008031F3208031013020009B0008000E
:1000E800200011107308FB007208FA0080319A2072
:1000F80080317008710403198228832888287108C0
:100108008A0070080A00803108008031BB208031E5
:100118008B170B1780315C208031813103218031AE
:1001280022008E100E118E110E12080020001B1DC9
:100138009E289F28A6281B107B089A007A089900F9
:100148001B14AA287B089A007A08990008008031B5
:100158008920803120008E1EB228B328B6282200BC
:100168008E14AE2822008E10AE28803128288031C7
:10017800EB2080318031322080318031D9208031AC
:100188008031FF20803180315C2080310800740884
:1001980075040319D028D128D62875088A00740850
:1001A8000A008031270019100800623032009900D7
:1001B8009B019D0103309F009E0108002700191C28
:1001C800E628E728EA288031CB2080310800320071
:1001D8009101920193019401950196010800200074
:1001E8002108F1002008F000080020002108F5008F
:1001F8002008F400080016302100970008002000AD
:080208001B14080008000800A7
:020000040001F9
:08000E00ECFFF3FFFFFFFFFF11
:00000001FF
