:020000040000FA
:0400000080312828FB
:100008007E1480312100101E0A280B281428200095
:10001800101E0F2810281428843193248031262894
:100028000B1F1728182826282100111C1C281D28FA
:1000380026282000111C2128222826288431602403
:10004800803126287E10090080312A288431B02486
:100058008031DA008431B1248031DB008431B2246C
:100068008031DC008431B3248031DD00210084310B
:10007800B4248031B8008431B5248031B90084318A
:10008800B6248031BA008431B7248031BB00B03047
:100098008400223085004030FE000130FF008431AA
:1000A8007E248031FA01FB01413084000030850054
:1000B8001330FE000030FF0084317E248031B4010B
:1000C800B501B601B7017E10200084310E2C200046
:1000D8003D0886003E08870081015D082100A300D5
:1000E80020005C082100A20020005B082100A1007C
:1000F80020005A082100A00078302000AC00003011
:10010800AD00AE01A03083315323803120002D088B
:100118002100A90020002C082100A8003B08A70006
:100128003A08A6003908A5003808A400783020004D
:10013800AC000030AD00AE01A430833153238031D0
:1001480020002D082100AB0020002C082100AA0067
:1001580082316B22803178082100B1007708B00025
:1001680082316B22803120003D0886003E088700DE
:1001780041317708C03F7808C13F3D0886003E08F6
:1001880087004131403F2100B200413FB300AC013C
:10019800AD01210033082000B600210032082000FC
:1001A800B50082316B22803178082000AD007708D5
:1001B800AC00210029082000AF00210028082000F9
:1001C800AE008231BA22803120002D08B8002C08F8
:1001D800B700823113228031210033082000B60095
:1001E800210032082000B50082316B228031780866
:1001F8002000AD007708AC00210031082000AF00D6
:10020800210030082000AE008231BA22803120005F
:100218002D08B8002C08B700823113228031013034
:100228002100AC070030AD3D2D08803A2000BF000A
:1002380080303F02031D2329033021002C02031CB8
:1002480026292729CD28210033082000B6002100BF
:1002580032082000B50082316B22803178082000F6
:10026800AD007708AC00210031082000AF00210064
:1002780030082000AE008231BA22803120002D08DB
:10028800B8002C08B7008231132280312100AE015A
:10029800AF01210033082000B600210032082000F9
:1002A800B50082316B22803178082000AD007708D4
:1002B800AC0021002B082000AF0021002A082000F4
:1002C800AE008231BA22803120002D08B8002C08F7
:1002D800B700823113228031210033082000B60094
:1002E800210032082000B50082316B228031780865
:1002F8002000AD007708AC00210031082000AF00D5
:10030800210030082000AE008231BA22803120005E
:100318002D08B8002C08B700823113228031013033
:100328002100AE070030AF3D2F08803A2000BF0003
:1003380080303F02031DA329033021002E02031C35
:10034800A629A7294D29080020004A08F9004908CC
:10035800F80041087802A0004208793BA1007A0819
:1003680086007B0887004431403FA200413FA3003C
:1003780021082302031DC229200822020318C529C7
:10038800C629D5297A0886007B0887004631403F70
:10039800FA00413FFB007908C2007808C100CD018E
:1003A800CD0A4D03031DD929DA29122A7A088600B5
:1003B8007B0887000108A0002008F2000030823185
:1003C800F32281317A0886007B08870041310108D1
:1003D8002000A0002008F20001308231F322813190
:1003E8007A0886007B088700423101082000A000B7
:1003F8002008F20002308231F32281317A08860027
:100408007B088700433101082000A0002008F20083
:1004180003308231F32281312000CD010800200011
:100428003508860036088700463116000104031D8A
:100438001E2A1F2A322A35088600360887004631C8
:100448003708C03F3808C13F37088600380887009A
:1004580046313508C03F3608C13F6A2A350886004C
:10046800360887004631403FBB00413FBC00452A63
:100478003B0886003C0887004631403FBB00413FAF
:10048800BC003B0886003C0887004631403FB90065
:10049800413FBA0036083A06031D542A3508390682
:1004A800031D572A582A3C2A3B0886003C08870027
:1004B80046313708C03F3808C13F3708860038083A
:1004C800870046313508C03F3608C13F0800003074
:1004D80020004402283003194302031C742A752A99
:1004E800782AF701F801B92A4408A3004308A200B2
:1004F800A235A30DA235A30DA235A30DB030A400DB
:100508002230A50022082407AA002308253DAB00B5
:100518000130C3070030C43D0030A9000030A800F6
:100528000030A7000030A6002B08F3002A08F200CC
:100538002630A2002208F4008331AA238231200049
:100548002A0886002B08870044317830C03F0030E5
:10055800C13F2A0886002B08870046310030C03F7B
:10056800C13F2B08F8002A08F70008002000B30153
:10057800B401200033082E07860034082F3D870079
:100588000108B00033082C07B10034082D3DB20033
:100598003108860032088700300881000130B3072F
:1005A8000030B43D3408803AB00080303002031D7A
:1005B800DF2A04303302031CE22AE32ABD2A200082
:1005C8002E0886002F08870044312C0884002D0847
:1005D80085000431403F803F413F813F0800F500DE
:1005E8000E2B720C2200031C8E1003188E14720C32
:1005F8002200031C0E1103180E15720C2200031C96
:100608008E1103188E15720C2200031C0E1203188B
:100618000E16242B7508F300F4017408003A031928
:10062800162B072B7308003A0319F52A013A031908
:10063800FB2A033A0319012B013A0319072B072B4D
:10064800080020004F084E0603192B2B2C2B3F2B9C
:10065800F401F501412B0430F2003E30890B322BB6
:10066800F20B322B20000E0E890C01394F060319AC
:100678003E2B3F2B412B0030522B7508F30074089A
:10068800F200F40A0319F50A003073020330031963
:100698007202031C502B512B2F2B01300800200015
:1006A800AF0082316B22833178082000B1007708CF
:1006B800B0003108F3003008F2002F08F90079087B
:1006C800F4008331AA2383312000300886003108E2
:1006D800870044312C08C03F2D08C13F30088600F0
:1006E8003108870046312E08C03F0030C13F31082D
:1006F800AD003008AC00080022008C0120308E00CC
:10070800373021008C0021308E0023008E013330D9
:100718008C0024008C018E0125008C018E0137305D
:1007280026008C003F308E003F3027008C003F3081
:100738008E00191018101714BF30F2000430F3009F
:100748008431AA2483312100101608002000A0015A
:10075800A10120087407F5007508860087010108C3
:10076800F60020087207F7002108733DF8007708A3
:10077800860078088700760881000130A0070030DD
:10078800A13D00302102043003192002031CCD2BA7
:10079800CE2BAD2B0800F7007708F6007608F2009C
:1007A80000308231F32283317708F6007608F200B0
:1007B80001308231F32283317708F6007608F2009F
:1007C80002308231F32283317708F6007608F2008E
:1007D80003308231F322833108008431502483317D
:1007E8008B170B178431282483318431BC2483313F
:1007F80000308331CF23833151302000BD000030D9
:10080800BE0080316B20833120005308FB00520862
:10081800FA0008008331F1238431003020008E1A59
:100828000130CF0083312523843120004F08C000D8
:100838004008CE005130F6000030F7008131A82181
:100848008431112C8031282820009C01FF309A0027
:10085800990111101A08D7001908D600210011149F
:100868000030F2000030F3008431A42484310130D8
:1008780020009B00080020001B1D432C442C4B2CFF
:100888001B1071089A00700899001B144F2C7108EE
:100898009A0070089900080084319C2484318331BF
:1008A8008023843184318A2484318431B82484318A
:1008B8008431282484310800200011105708F100E1
:1008C8005608F00084313F24843101302000C907E4
:1008D8000030CA3D08002000580859040319752C37
:1008E800762C7B2C59088A0058080A008431270086
:1008F800191008006400800101310130FE02003047
:10090800FF3B7F087E04031D7F2C003462303200D9
:1009180099009B019D0103309F009E01080027005C
:10092800191C972C982C9B2C84316F248431080037
:1009380032009101920193019401950196010800FA
:1009480073082000D5007208D4000800730820003E
:10095800D9007208D800080001340034013400348A
:1009680000340134003401341630210097000800A7
:0809780020001B140800080018
:020000040001F9
:08000E00ECFFF3FFFFFFFFFF11
:00000001FF
