:020000040000FA
:0400000080312828FB
:100008007E1480312100101E0A280B281428200095
:10001800101E0F28102814288531572580312628CE
:100028000B1F1728182826282100111C1C281D28FA
:1000380026282000111C2128222826288431E8247B
:10004800803126287E10090080312A2860308400FB
:100058008530850021001200C7001200C800120078
:10006800C9001200CA001200CB001200CC00120016
:10007800CD001200CE00F030840020308500003022
:10008800FE000330FF00853142258031FA01FB0173
:100098005A308400003085001030FE000030FF0028
:1000A800853142258031A03084000030850027301A
:1000B800FE000030FF008531422580317E1020008F
:1000C8008431B62C20003D0886003E088700810157
:1000D80021004E082000C30021004D082000C20066
:1000E80021004C082000C10021004B082000C0005E
:1000F8005030AC000030AD00AE0140308331CB232E
:10010800803120002D08C9002C08C80021004A08A9
:100118002000C700210049082000C6002100480827
:100128002000C500210047082000C4005030AC0062
:100138000030AD00AE0144308331CB238031200044
:100148002D08CB002C08CA008231B92280317808EA
:100158002000D1007708D0008231B92280312000F8
:100168003D0886003E08870041317708C03F78087F
:10017800C13F3D0886003E0887004131403FD2001C
:10018800413FD300CC01CD0120005308B6005208EE
:10019800B5008231B922803178082000AD00770897
:1001A800AC004908AF004808AE0083319223803183
:1001B80020002D08B8002C08B70082316122803158
:1001C80020005308B6005208B5008231B9228031A8
:1001D80078082000AD007708AC005108AF0050083F
:1001E800AE0083319223803120002D08B8002C08FE
:1001F800B70082316122803101302000CC07003005
:10020800CD3D4D08803ABF0080303F02031D0E29C6
:1002180003304C02031C11291229C8282000530856
:10022800B6005208B5008231B92280317808200022
:10023800AD007708AC005108AF005008AE0083311C
:100248009223803120002D08B8002C08B700823195
:10025800612280312000CE01CF0120005308B60072
:100268005208B5008231B922803178082000AD00EB
:100278007708AC004B08AF004A08AE0083319223E0
:10028800803120002D08B8002C08B7008231612287
:10029800803120005308B6005208B5008231B922D7
:1002A800803178082000AD007708AC005108AF0015
:1002B8005008AE0083319223803120002D08B80009
:1002C8002C08B70082316122803101302000CE072E
:1002D8000030CF3D4F08803ABF0080303F02031DF9
:1002E800772903304E02031C7A297B29312908001B
:1002F80020006508F9006408F8005A087802A00090
:100308005B08793BA1002100450886004608870064
:100318004431403F2000A200413FA30021082302AE
:10032800031D98292008220203189B299C29AD291E
:10033800210045088600460887004631403FC50031
:10034800413FC60079082000DB007808DA00E801A0
:10035800E80A6803031DB129B229EF2921004508DD
:1003680086004608870001082000A0002008F20047
:1003780000308131F021813121004508860046088E
:100388008700413101082000A0002008F200013058
:100398008131F02181312100450886004608870017
:1003A800423101082000A0002008F200023081310B
:1003B800F021813121004508860046088700433135
:1003C80001082000A0002008F20003308131F0214C
:1003D80081312000E8010800F5004A2A20000E0CAF
:1003E800013972060319F929FA29602A0310220033
:1003F8008E1C03140318012A042A22008E14062ACC
:1004080022008E10602A20000E0C890C0139720619
:1004180003190F2A102A602A031022000E1D031444
:100428000318172A1A2A22000E151C2A22000E1158
:10043800602A20000E0CF300F30C730C01397206CD
:100448000319272A282A602A031022008E1D031464
:1004580003182F2A322A22008E15342A22008E11E0
:10046800602A20000E0E0139720603193C2A3D2A23
:10047800602A031022000E1E03140318442A472A78
:1004880022000E16492A22000E12602A7508F3006F
:10049800F4017408003A0319522A352A7308003AFD
:1004A8000319F229013A0319072A033A03191D2AE5
:1004B800013A0319352A352A080020003508860034
:1004C80036088700463116000104031D6C2A6D2A80
:1004D800802A350886003608870046313708C03F2D
:1004E8003808C13F37088600380887004631350884
:1004F800C03F3608C13FB82A35088600360887004D
:100508004631403FBB00413FBC00932A3B08860070
:100518003C0887004631403FBB00413FBC003B08D8
:1005280086003C0887004631403FB900413FBA0089
:1005380036083A06031DA22A35083906031DA52ADE
:10054800A62A8A2A3B0886003C08870046313708D5
:10055800C03F3808C13F3708860038088700463151
:100568003508C03F3608C13F0800003020005F0250
:10057800603003195E02031CC22AC32AC62AF70187
:10058800F801072B5F08A3005E08A200A235A30D9F
:10059800A235A30DA235A30DF030A4002030A5008C
:1005A80022082407AA002308253DAB000130DE07F6
:1005B8000030DF3D0030A9000030A8000030A7005F
:1005C8000030A6002B08F3002A08F2002630A2000B
:1005D8002208F40084315024823120002A08860041
:1005E8002B08870044315030C03F0030C13F2A08F3
:1005F80086002B08870046310030C03FC13F2B08DA
:10060800F8002A08F70008002000D801D901833132
:100618005423833120005908D7005808D600D6350E
:10062800D70D5608540786005708553D87007908A6
:10063800C03F7A08C13F0130D8070030D93D59087A
:10064800803AD60080305602031D2C2B0630580203
:10065800031C2F2B302B0B2B200054088600550829
:100668008700403FBD00413FBE0080316620833196
:1006780020005408860055088700403FD600413FB7
:10068800D70056088600570887004131540884006F
:10069800550885000C31403F803F413F813F0800AD
:1006A800003020005D02063003195C02031C5D2B3C
:1006B8005E2B612BF901FA01912B5D08F3005C08B0
:1006C800F2000330F4000030F500843197248331C0
:1006D800A7302000AC000030AD0072082C07AE0037
:1006E80073082D3DAF000130DC070030DD3D2E08DA
:1006F80086002F08870081018231B92283312000CA
:100708002E0886002F08870041317708C03F7808F7
:10071800C13F2F08FA002E08F90008002000B30195
:10072800B401200033082E07860034082F3D8700C7
:100738000108B00033082C07B10034082D3DB20081
:100748003108860032088700300881000130B3077D
:100758000030B43D3408803AB00080303002031DC8
:10076800B72B04303302031CBA2BBB2B952B20006C
:100778002E0886002F08870044312C0884002D0895
:1007880085000431403F803F413F813F0800200001
:10079800AF008231B922833178082000B100770890
:1007A800B0003108F3003008F2002F08F90079088A
:1007B800F400843150248331200030088600310849
:1007C800870044312C08C03F2D08C13F30088600FF
:1007D8003108870046312E08C03F0030C13F31083C
:1007E800AD003008AC0008007B087A060319FD2B21
:1007F800FE2B112CF401F501132C0430F2003E30CD
:10080800890B042CF20B042C20000E0E890C0139E4
:100818007B060319102C112C132C0030242C75087E
:10082800F3007408F200F40A0319F50A00307302A1
:10083800033003197202031C222C232C012C0130D3
:10084800080022008C0120308E00373021008C00F7
:1008580021308E0023008E0133308C0024008C015F
:100868001E308E0025008C018E01373026008C004A
:100878003F308E003F3027008C003F308E0019102B
:10088800181017148930F2000530F30085317625E9
:1008980084312100101608002000A001A1012008C1
:1008A8007407F5007508860087010108F60020081E
:1008B8007207F7002108733DF8007708860078086A
:1008C8008700760881000130A0070030A13D003084
:1008D8002102043003192002031C732C742C532C9E
:1008E8000800F7007708F6007608F200003081313A
:1008F800F02184317708F6007608F2000130813162
:10090800F02184317708F6007608F2000230813150
:10091800F02184317708F6007608F200033081313F
:10092800F02184310800F601F701721C9C2C9D2CE3
:10093800A12C7408F6077508F73D0130F435F50D5C
:10094800890BA22C0130F336F20C890BA72C720804
:100958007304031DB02CB12C992C7708F30076088A
:10096800F20008008431D0248431003020008E1A2F
:100978000130FB008331F82384317B082100CF004C
:100988004F08FA003A08F7003908F60081317C214F
:100998008431B92C803128288531232584318B175F
:1009A8000B178431FE24843185318625843100304B
:1009B800843175248431B9302000D4000030D5004A
:1009C8008331082384310800200011106D08F100DC
:1009D8006C08F00085311225843120006A086B0408
:1009E8000319F72CF82CFD2C6B088A006A080A00FA
:1009F8008431080020009C01FF309A0099011110F1
:100A08001A08ED001908EC00210011147C30F200DE
:100A18000530F300853170258431080020001B1D46
:100A2800162D172D1E2D1B1071089A00700899009D
:100A38001B14222D71089A0070089900080085314E
:100A48006825853184312524853185314E258531C8
:100A58008531822585318431FE24853108002000C6
:100A68006E086F040319392D3A2D3F2D6F088A003F
:100A78006E080A00853127001910080064008001FB
:100A880001310130FE020030FF3B7F087E04031D68
:100A9800432D00346230320099009B019D010330E0
:100AA8009F009E0108002700191C5B2D5C2D5F2DFF
:100AB8008531332585310800003401340034013490
:100AC8000134003401340034320091019201930161
:100AD800940195019601080073082000EB00720844
:100AE800EA00080073082000EF007208EE00080012
:100AF80001302000E4070030E53D080016302100F1
:0C0B08009700080020001B1408000800E3
:020000040001F9
:08000E00ECFFF3FFFFFFFFFF11
:00000001FF
