:020000040000FA
:0400000080312828FB
:100008007E1480312100101E0A280B281428200095
:10001800101E0F2810281428823113228031262818
:100028000B1F1728182826282100111C1C281D28FA
:1000380026282000111C2128222826288131B721B2
:10004800803126287E10090080312A28823130220A
:100058008031B400823131228031B50082313222C0
:100068008031B600823133228031B7002E308400CF
:1000780022308500C230FE000130FF008131E121CD
:100088008031F701F801F901FA01FB012030840001
:10009800003085000E30FE000030FF008131E12184
:1000A80080317E1020008031E228F5007428720C1F
:1000B8002200031C8E1003188E14720C2200031CDD
:1000C8000E1103180E15720C2200031C8E11031852
:1000D8008E15720C2200031C0E1203180E168A28A5
:1000E8007508F300F4017408003A03197C286D2898
:1000F8007308013A03195B28033A03196128013A86
:1001080003196728073A03196D286D2808007A082B
:100118007906031990289128A428F401F501A62846
:100128000430F2003E30890B9728F20B9728200004
:100138000E0E890C01397A060319A328A428A628CB
:100148000030B7287508F3007408F200F40A0319A0
:10015800F50A00307302033003197202031CB52834
:10016800B62894280130080022008C0120308E0027
:10017800373021008C0021308E0023008E0133306F
:100188008C0024008C018E0125008C018E013730F3
:1001980026008C003F308E003F3027008C003F3017
:1001A8008E001910181017143B30F2000230F300BB
:1001B80082312A22803121001016080081319721CE
:1001C8008031003020008E1A0130FA0080318B20F7
:1001D8008031003A0319F128F22800297A08031D12
:1001E800F628F728FC2801308131082180310029C0
:1001F80000308131082180317A082000B90039089F
:10020800F900E528803128282000B8003808F600D1
:100218007608F200013080315920813120003808F9
:10022800F6007608F2000230803159208131200032
:100238003808F6007608F200033080315920813101
:1002480020003808F6007608F20004308031592082
:100258008131080041347334733465347234743432
:1002680069346F346E3420346634613469346C34E4
:10027800653464343A3420342534733420342834D3
:10028800253473343A342034253473343A342034E2
:100298002534643429340A340034733474346134B2
:1002A800673465345F346C346934733474345F3460
:1002B800693474346534723420343C343D34203429
:1002C8004D34413458345F34533454344134473412
:1002D80045345334003420009C01FF309A009901C2
:1002E80011101A08B1001908B000210011140030CB
:1002F800F2000030F30082312422813101302000E5
:100308009B00080020001B1D8A298B2992291B109D
:1003180071089A00700899001B14962971089A00B0
:100328007008990008008131A72181318B170B17BC
:1003380081316F2181318231382281310030813120
:1003480008218131080082311C2281318031B82096
:10035800813182310A2281318231342281318131E5
:100368006F2181310800200011103108F100300898
:10037800F00081318621813101302000AA07003048
:10038800AB3D08002000320833040319CC29CD29DD
:10039800D22933088A0032080A008131270019104F
:1003A800080041347034703465346E346434533426
:1003B8007434613467346534003464008001013179
:1003C8000130FE020030FF3B7F087E04031DE22956
:1003D80000346834653461346434203421343D3465
:1003E8002034303400345034613474347434653417
:1003F80072346E342E34633400344E3465347734BA
:1004080053347434613467346534003462303200F4
:1004180099009B019D0103309F009E010800270061
:10042800191C172A182A1B2A8131C6218231080073
:1004380032009101920193019401950196010800FF
:1004480073082000AF007208AE000800730820008F
:10045800B3007208B20008000134003401340034DB
:10046800163021009700080020001B14080008001F
:020000040001F9
:08000E00ECFFF3FFFFFFFFFF11
:00000001FF
