:020000040000FA
:0400000080312828FB
:1000060008007E1480312100101E0A280B281428AF
:100016002000101E0F28102814288F312B2780311E
:1000260026280B1F1728182826282100111C1C28F3
:100036001D2826282000111C2128222826288F3139
:100046009927803126287E10090080312A28DA3047
:10005600840087308500C830860000308700003075
:10006600FF0020308F3149278031F0308400203066
:1000760085000030FE000330FF008F313D278031C0
:10008600FA01FB015C308400003085001030FE0070
:100096000030FF008F313D278031A03084000030D2
:1000A60085002830FE000030FF008F313D2780316B
:1000B6007E1020008F31C72F20003D0886003E08A5
:1000C60087000130810021005F082000C300210065
:1000D6005E082000C20021005D082000C10021004A
:1000E6005C082000C0005030AC000030AD00AE010E
:1000F600403087310E27803120002D08C9002C089A
:10010600C80021005B082000C70021005A08200013
:10011600C600210059082000C5002100580820000B
:10012600C4005030AC000030AD00AE014430873121
:100136000E27803120002D08CB002C08CA008631FE
:100146004826803178082000D1007708D0003D0885
:1001560086003E0887004131403FD200413FD30030
:10016600CC01CD0120005308B6005208B5008631F7
:100176004826803178082000AD007708AC00490891
:10018600AF004808AE008631D526803120002D0804
:10019600B8002C08B7008531F025803120005308BF
:1001A600B6005208B500863148268031780820000E
:1001B600AD007708AC005108AF005008AE0086319C
:1001C600D526803120002D08B8002C08B7008531CF
:1001D600F025803101302000CC070030CD3D4D08A0
:1001E600803ABF0080303F02031DFB2803304C02DB
:1001F600031CFE28FF28B52820005308B600520825
:10020600B50086314826803178082000AD00770891
:10021600AC005108AF005008AE008631D5268031BB
:1002260020002D08B8002C08B7008531F025803154
:100236002000CE01CF0120005308B6005208B500B9
:1002460086314826803178082000AD007708AC005A
:100256004B08AF004A08AE008631D5268031200013
:100266002D08B8002C08B7008531F0258031200014
:100276005308B6005208B500863148268031780802
:100286002000AD007708AC005108AF005008AE0062
:100296008631D526803120002D08B8002C08B700FD
:1002A6008531F025803101302000CE070030CF3D6A
:1002B6004F08803ABF0080303F02031D6429033097
:1002C6004E02031C672968291E29080020003D08E4
:1002D60086003E0887000230810021005708200072
:1002E600C300210056082000C20021005508200046
:1002F600C100210054082000C0005030AC0000307E
:10030600AD00AE01403087310E27813120002D0827
:10031600C9002C08C800210053082000C70021008E
:1003260052082000C600210051082000C500210007
:1003360050082000C4005030AC000030AD00AE01C3
:10034600443087310E27813120002D08CB002C0840
:10035600CA0086314826813178082000D100770806
:10036600D0003D0886003E0887004131403FD2005C
:10037600413FD300CC01CD0120005308B6005208FE
:10038600B50086314826813178082000AD0077080F
:10039600AC004908AF004808AE008631D526813149
:1003A60020002D08B8002C08B7008531F0258131D2
:1003B60020005308B6005208B50086314826813120
:1003C60078082000AD007708AC005108AF0050084F
:1003D600AE008631D526813120002D08B8002C08C4
:1003E600B7008531F025813101302000CC0700307F
:1003F600CD3D4D08803ABF0080303F02031D052ADF
:1004060003304C02031C082A092ABF29200053087E
:10041600B6005208B500863148268131780820009A
:10042600AD007708AC005108AF005008AE00863129
:10043600D526813120002D08B8002C08B70085315B
:10044600F02581312000CE01CF0120005308B600EF
:100456005208B50086314826813178082000AD0063
:100466007708AC004B08AF004A08AE008631D526A7
:10047600813120002D08B8002C08B7008531F02501
:10048600813120005308B6005208B500863148264F
:10049600813178082000AD007708AC005108AF0024
:1004A6005008AE008631D526813120002D08B800CF
:1004B6002C08B7008531F025813101302000CE07A8
:1004C6000030CF3D4F08803ABF0080303F02031D09
:1004D6006E2A03304E02031C712A722A282A08004B
:1004E60020003D0886003E08870003308100210079
:1004F6004F082000C30021004E082000C200210042
:100506004D082000C10021004C082000C0005030DA
:10051600AC000030AD00AE01403087310E2782318D
:1005260020002D08C9002C08C80021004B08200017
:10053600C70021004A082000C60021004908200003
:10054600C500210048082000C4005030AC0000302F
:10055600AD00AE01443087310E27823120002D08D0
:10056600CB002C08CA008631482682317808200044
:10057600D1007708D0003D0886003E08870041314B
:10058600403FD200413FD300CC01CD0120005308AB
:10059600B6005208B5008631482682317808200018
:1005A600AD007708AC004908AF004808AE008631B8
:1005B600D526823120002D08B8002C08B7008531D9
:1005C600F025823120005308B6005208B500863166
:1005D6004826823178082000AD007708AC00510823
:1005E600AF005008AE008631D526823120002D0896
:1005F600B8002C08B7008531F02582310130200083
:10060600CC070030CD3D4D08803ABF0080303F0218
:10061600031D0F2B03304C02031C122B132BC92A6C
:1006260020005308B6005208B500863148268231AC
:1006360078082000AD007708AC005108AF005008DC
:10064600AE008631D526823120002D08B8002C0850
:10065600B7008531F02582312000CE01CF01200080
:100666005308B6005208B50086314826823178080C
:100676002000AD007708AC004B08AF004A08AE007A
:100686008631D526823120002D08B8002C08B70007
:100696008531F025823120005308B6005208B50096
:1006A60086314826823178082000AD007708AC00F4
:1006B6005108AF005008AE008631D52682312000A1
:1006C6002D08B8002C08B7008531F025823101309D
:1006D6002000CE070030CF3D4F08803ABF00803063
:1006E6003F02031D782B03304E02031C7B2B7C2B11
:1006F600322B080020003D0886003E088700810155
:10070600210067082000C300210066082000C200FF
:10071600210065082000C100210064082000C000F7
:100726005030AC000030AD00AE01403087310E27AE
:10073600833120002D08C9002C08C8002100630859
:100746002000C700210062082000C60021006108C1
:100756002000C500210060082000C4005030AC0015
:100766000030AD00AE01443087310E2783312000C2
:100776002D08CB002C08CA0086314826833178081C
:100786002000D1007708D0003D0886003E0887008B
:100796004131403FD200413FD300CC01CD01200082
:1007A6005308B6005208B5008631482683317808CA
:1007B6002000AD007708AC004908AF004808AE003D
:1007C6008631D526833120002D08B8002C08B700C5
:1007D6008531F025833120005308B6005208B50054
:1007E60086314826833178082000AD007708AC00B2
:1007F6005108AF005008AE008631D526833120005F
:100806002D08B8002C08B7008531F025833101305A
:100816002000CC070030CD3D4D08803ABF00803027
:100826003F02031D182C03304C02031C1B2C1C2CEE
:10083600D22B20005308B6005208B5008631482650
:10084600833178082000AD007708AC005108AF006E
:100856005008AE008631D526833120002D08B80019
:100866002C08B7008531F02583312000CE01CF0159
:1008760020005308B6005208B50086314826833159
:1008860078082000AD007708AC004B08AF004A0896
:10089600AE008631D526833120002D08B8002C08FD
:1008A600B7008531F025833120005308B600520881
:1008B600B50086314826833178082000AD007708D8
:1008C600AC005108AF005008AE008631D526833102
:1008D60020002D08B8002C08B7008531F02583319B
:1008E60001302000CE070030CF3D4F08803ABF00D0
:1008F60080303F02031D812C03304E02031C842CE2
:10090600852C3B2C08002000DA01DB018631972676
:10091600843120005B08D7005A08D600D635D70D9B
:100926005608540786005708553D87007908C03F8A
:100936007A08C13F0130DA070030DB3D5B08803AB8
:10094600D60080305602031DAA2C06305A02031C1C
:10095600AD2CAE2C892C2000540886005508870043
:100966004C3181015408860055088700403FBD0080
:10097600413FBE0083317D23843120005408860028
:10098600550887004231403FBD00413FBE008031DF
:100996005F208431200054088600550887004431C2
:1009A600403FBD00413FBE008131692184312000B6
:1009B60054088600550887004631403FBD00413F38
:1009C600BE00823173228431200054088600550807
:1009D60087004C310108D600D701D635D70D560809
:1009E600540786005708553D8700403FD800413FD1
:1009F600D9005808860059088700413154088400F8
:100A0600550885000D31403F803F413F813F08003A
:100A160020006708F9006608F8005C087802A00064
:100A26005D08793BA100210046088600470887003B
:100A36004431403F2000A200413FA3002108230289
:100A4600031D272D2008220203182A2D2B2D3C2DAD
:100A5600210046088600470887004631403FC60009
:100A6600413FC70079082000DD007808DC00EA0174
:100A7600EA0A6A03031D402D412D7E2D21004608FA
:100A860086004708870001082000A0002008F20021
:100A9600003085317F2585312100460886004708CC
:100AA6008700413101082000A0002008F200013033
:100AB60085317F2585312100460886004708870055
:100AC600423101082000A0002008F20002308531E2
:100AD6007F25853121004608860047088700433177
:100AE60001082000A0002008F200033085317F2590
:100AF60085312000EA010800F500D92D20000E0CF2
:100B0600013972060319882D892DEF2D0310220055
:100B16008E1C03140318902D932D22008E14952DF0
:100B260022008E10EF2D20000E0C890C0139720662
:100B360003199E2D9F2DEF2D031022000E1D031469
:100B46000318A62DA92D22000E15AB2D22000E117D
:100B5600EF2D20000E0CF300F30C730C0139720616
:100B66000319B62DB72DEF2D031022008E1D031489
:100B76000318BE2DC12D22008E15C32D22008E1105
:100B8600EF2D20000E0E013972060319CB2DCC2D48
:100B9600EF2D031022000E1E03140318D32DD62D9D
:100BA60022000E16D82D22000E12EF2D7508F30026
:100BB600F4017408003A0319E12DC42D7308003AB4
:100BC6000319812D013A0319962D033A0319AC2D09
:100BD600013A0319C42DC42D0800200035088600EB
:100BE60036088700463116000104031DFB2DFC2D37
:100BF6000F2E350886003608870046313708C03F75
:100C06003808C13F3708860038088700463135085E
:100C1600C03F3608C13F472E350886003608870094
:100C26004631403FBB00413FBC00222E3B088600B8
:100C36003C0887004631403FBB00413FBC003B08B3
:100C460086003C0887004631403FB900413FBA0064
:100C560036083A06031D312E35083906031D342E93
:100C6600352E192E3B0886003C088700463137088A
:100C7600C03F3808C13F370886003808870046312C
:100C86003508C03F3608C13F080000302000610229
:100C9600603003196002031C512E522E552EF701A7
:100CA600F801962E6108A3006008A200A235A30DE4
:100CB600A235A30DA235A30DF030A4002030A50067
:100CC60022082407AA002308253DAB000130E007CF
:100CD6000030E13D0030A9000030A8000030A70038
:100CE6000030A6002B08F3002A08F2002630A200E6
:100CF6002208F40087319327863120002A088600CF
:100D06002B08870044315030C03F0030C13F2A08CD
:100D160086002B08870046310030C03FC13F2B08B4
:100D2600F8002A08F7000800003020005F020630AD
:100D360003195E02031CA02EA12EA42EF901FA01AE
:100D4600D42E5F08F3005E08F2000330F400003092
:100D5600F5008F31E1278631A7302000AC00003046
:100D6600AD0072082C07AE0073082D3DAF000130B0
:100D7600DE070030DF3D2E0886002F088700810140
:100D860086314826863120002E0886002F088700E7
:100D960041317708C03F7808C13F2F08FA002E0876
:100DA600F90008002000B301B401200033082E0723
:100DB600860034082F3D87000108B00033082C0751
:100DC600B10034082D3DB200310886003208870094
:100DD600300881000130B3070030B43D3408803A52
:100DE600B00080303002031DFA2E04303302031C9B
:100DF600FD2EFE2ED82E20002E0886002F088700F6
:100E060044312C0884002D0885000431403F803F82
:100E1600413F813F08002000AF00863148268731D8
:100E260078082000B1007708B0003108F3003008D8
:100E3600F2002F08F9007908F400873193278731EB
:100E46002000300886003108870044312C08C03F56
:100E56002D08C13F300886003108870046312E082C
:100E6600C03F0030C13F3108AD003008AC0008007B
:100E76007B087A060319402F412F542FF401F50100
:100E8600562F0430F2003E30890B472FF20B472FC6
:100E960020000E0E890C01397B060319532F542F9F
:100EA600562F0030672F7508F3007408F200F40A15
:100EB6000319F50A00307302033003197202031C8A
:100EC600652F662F442F0130080022008C01203048
:100ED6008E00373021008C0021308E0023008E01D9
:100EE60033308C0024008C011E308E0025008C01CE
:100EF6008E01373026008C003F308E003F302700B1
:100F06008C003F308E001910181017140330F200B1
:100F16000030F3008F311D2787312100101608009D
:100F26002000A001A10120087407F50075088600BD
:100F360087010108F60020087207F7002108733DB3
:100F4600F800770886007808870076088100013067
:100F5600A0070030A13D0030210204300319200211
:100F6600031CB62FB72F962F0800F7007708F60058
:100F76007608F200003085317F2587317708F60044
:100F86007608F200013085317F2587317708F60033
:100F96007608F200023085317F2587317708F60022
:100FA6007608F200033085317F258731080000344A
:100FB6000034003401340034003401340034003489
:100FC6000034013401340134013400340034003477
:100FD6000134013400340134003400340134003467
:100FE6000134003401340134003401340034730810
:0A0FF6002100E9007208E80008007D
:101E200020001B1408001630210097000800013024
:101E30002000E6070030E73D080073082000EF00AF
:101E40007208EE00080032009101920193019401A2
:101E50009501960108002700191C2F2F302F332FD2
:101E60008F3155278F3108006230320099009B0175
:101E70009D0103309F009E01080064008001013134
:101E80000130FE020030FF3B7F087E04031D3E2F21
:101E90000034FE0012001E000130FE020030FF3B45
:101EA0007F087E04031D4A2F003420006E086F0453
:101EB00003195B2F5C2F612F6F088A006E080A00E0
:101EC0008F312700191008008F3123278F31873178
:101ED00068278F318F3134278F318F3113278F311E
:101EE0008F3185278F31080020001B1D782F792F17
:101EF000802F1B1071089A00700899001B14842F02
:101F000071089A0070089900080020009C01FF30B9
:101F10009A00990111101A08ED001908EC0021002F
:101F200011141730F2000F30F3008731FA278F3188
:101F30000800200011106D08F1006C08F0008F31CE
:101F400074278F312100680869040319A82FA92F6D
:101F5000AE2F69088A0068080A008F3108008F31A7
:101F600064278F318B170B178F3185278F318F3176
:101F700010278F3100308731B8278F31B9302000DA
:101F8000D4000030D500843186248F3108008F3191
:101F9000AF278F31003020008E1A0130FB008731CF
:101FA0003B278F317B082100EA006A08FA003A08D3
:101FB000F7003908F60085310B258F31CA2F8031A3
:101FC0002828F601F701721CE62FE72FEB2F740883
:101FD000F6077508F73D0130F435F50D890BEC2F48
:101FE0000130F336F20C890BF12F72087304031DD4
:101FF000FA2FFB2FE32F7708F3007608F200080092
:020000040001F9
:08000E00ECFFF3FFFFFFFFFF11
:00000001FF
