:020000040000FA
:0400000080312828FB
:100008007E1480312100101E0A280B281428200095
:10001800101E0F28102814288431D6248031262851
:100028000B1F1728182826282100111C1C281D28FA
:1000380026282000111C21282228262884316724FC
:10004800803126287E10090080312A288431F9243D
:100058008031DA008431FA248031DB008431FB24DA
:100068008031DC008431FC248031DD0021008431C2
:10007800FD248031B8008431FE248031B9008431F8
:10008800FF248031BA00853100258031BB00B030B3
:100098008400223085004030FE000130FF008431AA
:1000A800C1248031FA01FB01413084000030850011
:1000B8001330FE000030FF008431C1248031B401C8
:1000C800B501B601B7017E10200084314D2C200007
:1000D8003D0886003E08870081015D082100A300D5
:1000E80020005C082100A20020005B082100A1007C
:1000F80020005A082100A000A0302000AC000030E9
:10010800AD00AE01A03083316423803120002D087A
:100118002100A90020002C082100A8003B08A70006
:100128003A08A6003908A5003808A400A030200025
:10013800AC000030AD00AE01A430833164238031BF
:1001480020002D082100AB0020002C082100AA0067
:100158008231DC22803178082100B1007708B000B4
:100168008231DC22803120003D0886003E0887006D
:1001780041317708C03F7808C13F3D0886003E08F6
:1001880087004131403F2100B200413FB300AC013C
:10019800AD01210033082000B600210032082000FC
:1001A800B5008231DC22803178082000AD00770864
:1001B800AC00210029082000AF00210028082000F9
:1001C800AE0083312B23803120002D08B8002C0885
:1001D800B700823184228031210033082000B60024
:1001E800210032082000B5008231DC2280317808F5
:1001F8002000AD007708AC00210031082000AF00D6
:10020800210030082000AE0083312B2380312000EC
:100218002D08B8002C08B7008231842280310130C3
:100228002100AC070030AD3D2D08803A2000BF000A
:1002380080303F02031D2329033021002C02031CB8
:1002480026292729CD28210033082000B6002100BF
:1002580032082000B5008231DC2280317808200085
:10026800AD007708AC00210031082000AF00210064
:1002780030082000AE0083312B23803120002D0868
:10028800B8002C08B7008231842280312100AE01E9
:10029800AF01210033082000B600210032082000F9
:1002A800B5008231DC22803178082000AD00770863
:1002B800AC0021002B082000AF0021002A082000F4
:1002C800AE0083312B23803120002D08B8002C0884
:1002D800B700823184228031210033082000B60023
:1002E800210032082000B5008231DC2280317808F4
:1002F8002000AD007708AC00210031082000AF00D5
:10030800210030082000AE0083312B2380312000EB
:100318002D08B8002C08B7008231842280310130C2
:100328002100AE070030AF3D2F08803A2000BF0003
:1003380080303F02031DA329033021002E02031C35
:10034800A629A7294D290800F500022A20000E0C2D
:10035800013972060319B129B229182A031022009B
:100368008E1C03140318B929BC2922008E14BE2937
:1003780022008E10182A20000E0C890C01397206F2
:100388000319C729C829182A031022000E1D0314AF
:100398000318CF29D22922000E15D42922000E11C4
:1003A800182A20000E0CF300F30C730C01397206A6
:1003B8000319DF29E029182A031022008E1D0314CF
:1003C8000318E729EA2922008E15EC2922008E114C
:1003D800182A20000E0E013972060319F429F5298E
:1003E800182A031022000E1E03140318FC29FF29E3
:1003F80022000E16012A22000E12182A7508F30090
:10040800F4017408003A03190A2AED297308003A1E
:100418000319AA29013A0319BF29033A0319D5294F
:10042800013A0319ED29ED29080020004C08F900CC
:100438004B08F80041087802A0004208793BA10067
:1004480043088600440887004431403FA200413FEA
:10045800A30021082302031D332A200822020318BF
:10046800362A372A462A4308860044088700463138
:10047800403FC300413FC4007908C2007808C1006A
:10048800CF01CF0A4F03031D4A2A4B2A832A430868
:100498008600440887000108A0002008F200003008
:1004A8008131A82182312000430886004408870052
:1004B80041310108A0002008F20001308131A82153
:1004C8008231200043088600440887004231010831
:1004D800A0002008F20002308131A82182312000DA
:1004E800430886004408870043310108A00020081B
:1004F800F20003308131A82182312000CF010800A9
:1005080020003508860036088700463116000104A9
:10051800031D8F2A902AA32A3508860036088700EB
:1005280046313708C03F3808C13F370886003808C9
:10053800870046313508C03F3608C13FDB2A3508F9
:100548008600360887004631403FBB00413FBC006B
:10055800B62A3B0886003C0887004631403FBB006E
:10056800413FBC003B0886003C0887004631403FBD
:10057800B900413FBA0036083A06031DC52A3508B6
:100588003906031DC82AC92AAD2A3B0886003C083B
:10059800870046313708C03F3808C13F3708860012
:1005A8003808870046313508C03F3608C13F080083
:1005B800003020004602283003194502031CE52AB2
:1005C800E62AE92AF701F8012A2B4608A30045087C
:1005D800A200A235A30DA235A30DA235A30DB030FC
:1005E800A4002230A50022082407AA002308253DDC
:1005F800AB000130C5070030C63D0030A90000300F
:10060800A8000030A7000030A6002B08F3002A0835
:10061800F2002630A2002208F4008331E923823157
:1006280020002A0886002B0887004431A030C03FEC
:100638000030C13F2A0886002B0887004631003069
:10064800C03FC13F2B08F8002A08F7000800200027
:10065800B301B401200033082E07860034082F3D6B
:1006680087000108B00033082C07B10034082D3D7D
:10067800B200310886003208870030088100013056
:10068800B3070030B43D3408803AB00080303002FF
:10069800031D502B04303302031C532B542B2E2BD9
:1006A80020002E0886002F08870044312C0884007B
:1006B8002D0885000431403F803F413F813F0800BD
:1006C8002000AF008231DC22833178082000B1009D
:1006D8007708B0003108F3003008F2002F08F9005D
:1006E8007908F4008331E92383312000300886003B
:1006F8003108870044312C08C03F2D08C13F30081D
:1007080086003108870046312E08C03F0030C13FBF
:100718003108AD003008AC0008007B087A060319E0
:10072800962B972BAA2BF401F501AC2B0430F20081
:100738003E30890B9D2BF20B9D2B20000E0E890C51
:1007480001397B060319A92BAA2BAC2B0030BD2B32
:100758007508F3007408F200F40A0319F50A00306A
:100768007302033003197202031CBB2BBC2B9A2B98
:100778000130080022008C0120308E003730210023
:100788008C0021308E0023008E0133308C00240031
:100798008C011E308E0025008C018E01373026001A
:1007A8008C003F308E003F3027008C003F308E0099
:1007B8001910181017140830F2000530F3008431AE
:1007C800ED2483312100101608002000A001A101AA
:1007D80020087407F5007508860087010108F600EF
:1007E80020087207F7002108733DF8007708860093
:1007F80078088700760881000130A0070030A13D05
:1008080000302102043003192002031C0C2C0D2C8B
:10081800EC2B0800F7007708F6007608F2000030A5
:100828008131A82184317708F6007608F20001307A
:100838008131A82184317708F6007608F200023069
:100848008131A82184317708F6007608F200033058
:100858008131A821843108008431A22484318B1786
:100868000B1784317D24843185310525843100308E
:1008780084310E24843151302000BD000030BE0088
:1008880080316B20843120005308C4005208C30013
:100898000800843130248431003020008E1A013061
:1008A800FB008331912384317B082000C00040087D
:1008B800FA005130F6000030F700823119228431F5
:1008C800502C80312828200011105708F1005608B4
:1008D800F000843191248431200054085504031910
:1008E800762C772C7C2C55088A0054080A00843111
:1008F800080020009C01FF309A00990111101A0885
:10090800D7001908D60021001114F330F200043082
:10091800F3008431E7248431080020001B1D952C46
:10092800962C9D2C1B1071089A00700899001B14B6
:10093800A12C71089A007008990008008431DF24FE
:1009480084318331BE2384318431CD24843185318F
:100958000125843184317D24843108002000580821
:1009680059040319B82CB92CBE2C59088A00580808
:100978000A00843127001910080064008001013141
:100988000130FE020030FF3B7F087E04031DC22CAD
:1009980000346230320099009B019D0103309F00B2
:1009A8009E0108002700191CDA2CDB2CDE2C843170
:1009B800B22484310800320091019201930194011C
:1009C80095019601080073082000D5007208D4002C
:1009D800080073082000D9007208D8000800013008
:1009E8002000CB070030CC3D08000134003401342E
:1009F80000340034013400340134163021009700EB
:0A0A0800080020001B14080008007D
:020000040001F9
:08000E00ECFFF3FFFFFFFFFF11
:00000001FF
