:020000040000FA
:0400000080312828FB
:100008007E1480312100101E0A280B281428200095
:10001800101E0F28102814288031F520803126283A
:100028000B1F1728182826282100111C1C281D28FA
:1000380026282000111C2128222826288031DE208D
:10004800803126287E10090080312A28F001F1012C
:10005800F201F301F401F5012000A401A5017E10CD
:1000680020008031602822008C018E013730210069
:100078008C0021308E0023008E0137308C00240044
:100088008C018E0125008C018E01373026008C00F2
:100098003F308E003F3027008C003F308E00191013
:1000A800181017141930F8000130F90081310C21AB
:1000B800803121001016080080319D20803174089D
:1000C80072022000A6007508733BA70003302702C0
:1000D800E93003192602031C722873286328730861
:1000E800F5007208F400031022008E1C0314031894
:1000F8007E28812822008E14832822008E106328EF
:100108008031282820009C01FF309A0099011110A5
:100118001A08FB001908FA00210011140030F80031
:100128000030F900813106218031013020009B0028
:1001380008008031BF2080318B170B178031862053
:10014800803181311621803122008E100E118E11DE
:100158000E12080020001B1DB228B328BA281B1055
:1001680077089A00760899001B14BE2877089A0029
:100178007608990008008031FE20803180313720D0
:1001880080318031EC208031813112218031803101
:100198008620803108002000220823040319D5286E
:1001A800D628DB2823088A0022080A008031270085
:1001B80019100800200011107B08F7007A08F600D3
:1001C8008031AE2080310130F2070030F33D080065
:1001D8006230320099009B019D0103309F009E010F
:1001E80008002700191CF928FA28FD288031CF209B
:1001F8008031080032009101920193019401950128
:100208009601080079082000A1007808A0000800DD
:1002180079082000A3007808A20008001630210001
:0C0228009700080020001B1408000800CC
:020000040001F9
:08000E00ECFFF3FFFFFFFFFF11
:00000001FF
