:020000040000FA
:04000000803119280A
:100008007E1480310B1F09280A2817282100111C8B
:100018000E280F2817282000111C13281428172829
:100028008031412080317E10090080311B28F40185
:10003800F501F601F7017E1020008031B528220075
:100048008C018E01373021008C0021308E00213048
:1000580023008E0037308C0024008C018E0125008F
:100068008C018E01373026008C003F308E003F30E7
:1000780027008C003F308E00080020001110730804
:10008800F9007208F8008031832080310130F607CA
:100098000030F73D70087104031953285428592873
:1000A80071088A0070080A008031080020009C014D
:1000B800FF309A000630990011101A08F300190849
:1000C800F20021001114C730FA000030FB00803123
:1000D800BB208031013020009B0008008031942033
:1000E80080318B170B1780315A2080318031C42022
:1000F800803122008E100E118E110E120800200081
:100108001B1D872888288F281B1079089A007808D3
:1001180099001B14932879089A0078089900080018
:100128008031AD2080318031232080318031A4207E
:1001380080318031C020803180315A2080310800E0
:100148006230320099009B019D0103309F009E019F
:1001580008003200910192019301940195019601E2
:100168000800803172208031B828803119287B0836
:10017800F1007A08F0000800163021009700080006
:0801880020001B140800080010
:020000040001F9
:08000E00ECFFF3FFFFFFFFFF11
:00000001FF
