:020000040000FA
:0400000080312828FB
:100008007E1480312100101E0A280B281428200095
:10001800101E0F28102814288131AD218031262880
:100028000B1F1728182826282100111C1C281D28FA
:1000380026282000111C21282228262881317A21EF
:10004800803126287E10090080312A28B6308400A5
:10005800813085001200AF001200B0001200B1001C
:100068001200B2001200B3001200B4001200B50072
:100078001200B600B0308400223085004030FE0007
:100088000130FF00813198218031F701F801F90131
:10009800FA01FB0120308400003085000F30FE009B
:1000A8000030FF008131982180317E10200080319E
:1000B800E628F5007828720C2200031C8E1003181D
:1000C8008E14720C2200031C0E1103180E15720CEC
:1000D8002200031C8E1103188E15720C2200031CBB
:1000E8000E1203180E168E287508F300F401740812
:1000F800003A0319802871287308003A03195F2809
:10010800013A03196528033A03196B28013A0319C0
:100118007128712808007A08790603199428952807
:10012800A828F401F501AA280430F2003E30890B12
:100138009B28F20B9B2820000E0E890C01397A06A9
:100148000319A728A828AA280030BB287508F30097
:100158007408F200F40A0319F50A00307302033038
:1001680003197202031CB928BA289828013008001C
:1001780022008C0120308E00373021008C00213085
:100188008E0023008E0133308C0024008C018E01F8
:1001980025008C018E01373026008C003F308E0000
:1001A8003F3027008C003F308E00191018101714AC
:1001B800D930F2000130F3008131CC2180312100A7
:1001C8001016080081315A218031003020008E1A23
:1001D8000130FA0080318F208031003A0319F52868
:1001E800F62804297A08031DFA28FB28002901307B
:1001F80081310C2180310429003081310C2180317A
:100208007A082000BE003E08F900E9288031282835
:100218002000BD003D08F6007608F200003080316D
:100228005D20813120003D08F6007608F20001309B
:1002380080315D20813120003D08F6007608F2000B
:10024800023080315D20813120003D08F6007608BB
:10025800F200033080315D208131080020009C01CC
:10026800FF309A00990111101A08BA001908B9004C
:10027800210011140030F2000030F3008131C62152
:100288008131013020009B00080020001B1D4D29F2
:100298004E2955291B1071089A00700899001B14E3
:1002A800592971089A0070089900080081316A215B
:1002B80081318B170B178131322181318131D62160
:1002C8008131003081310C21813108008131BE211A
:1002D80081318031BC2081318131A421813181314A
:1002E800D221813181313221813108002000111061
:1002F8003A08F1003908F000813149218131013093
:100308002000AB070030AC3D080020003B083C044F
:1003180003198F29902995293C088A003B080A006F
:100328008131270019100800640080010131013073
:10033800FE020030FF3B7F087E04031D992900342C
:100348006230320099009B019D0103309F009E019D
:1003580008002700191CB129B229B5298131892142
:100368008131080000340134003401340134003490
:1003780001340034320091019201930194019501F6
:100388009601080073082000B8007208B70008003A
:1003980073082000BC007208BB000800163021005A
:0C03A8009700080020001B14080008004B
:020000040001F9
:08000E00ECFFF3FFFFFFFFFF11
:00000001FF
